{
  "_format": "hh-sol-artifact-1",
  "contractName": "ChannelRegistry",
  "sourceName": "contracts/ChannelRegistry.sol",
  "abi": [
    {
      "inputs": [
        {
          "internalType": "address",
          "name": "_userRegistry",
          "type": "address"
        }
      ],
      "stateMutability": "nonpayable",
      "type": "constructor"
    },
    {
      "anonymous": false,
      "inputs": [
        {
          "indexed": true,
          "internalType": "address",
          "name": "channelAddress",
          "type": "address"
        },
        {
          "indexed": true,
          "internalType": "address",
          "name": "creator",
          "type": "address"
        },
        {
          "indexed": true,
          "internalType": "uint256",
          "name": "registryIndex",
          "type": "uint256"
        }
      ],
      "name": "ChannelCreated",
      "type": "event"
    },
    {
      "anonymous": false,
      "inputs": [
        {
          "indexed": true,
          "internalType": "address",
          "name": "channelAddress",
          "type": "address"
        },
        {
          "indexed": true,
          "internalType": "address",
          "name": "registeredBy",
          "type": "address"
        },
        {
          "indexed": true,
          "internalType": "uint256",
          "name": "index",
          "type": "uint256"
        }
      ],
      "name": "ChannelRegistered",
      "type": "event"
    },
    {
      "inputs": [
        {
          "internalType": "uint256",
          "name": "",
          "type": "uint256"
        }
      ],
      "name": "channels",
      "outputs": [
        {
          "internalType": "address",
          "name": "channelAddress",
          "type": "address"
        },
        {
          "internalType": "address",
          "name": "registeredBy",
          "type": "address"
        },
        {
          "internalType": "uint256",
          "name": "registeredAt",
          "type": "uint256"
        }
      ],
      "stateMutability": "view",
      "type": "function"
    },
    {
      "inputs": [
        {
          "internalType": "address",
          "name": "",
          "type": "address"
        },
        {
          "internalType": "uint256",
          "name": "",
          "type": "uint256"
        }
      ],
      "name": "channelsByCreator",
      "outputs": [
        {
          "internalType": "uint256",
          "name": "",
          "type": "uint256"
        }
      ],
      "stateMutability": "view",
      "type": "function"
    },
    {
      "inputs": [
        {
          "internalType": "string",
          "name": "_name",
          "type": "string"
        },
        {
          "internalType": "string",
          "name": "_description",
          "type": "string"
        },
        {
          "internalType": "enum ChatChannel.PostingMode",
          "name": "_postingMode",
          "type": "uint8"
        }
      ],
      "name": "createChannel",
      "outputs": [
        {
          "internalType": "address",
          "name": "channelAddress",
          "type": "address"
        },
        {
          "internalType": "uint256",
          "name": "registryIndex",
          "type": "uint256"
        }
      ],
      "stateMutability": "nonpayable",
      "type": "function"
    },
    {
      "inputs": [],
      "name": "getAllChannels",
      "outputs": [
        {
          "components": [
            {
              "internalType": "address",
              "name": "channelAddress",
              "type": "address"
            },
            {
              "internalType": "address",
              "name": "registeredBy",
              "type": "address"
            },
            {
              "internalType": "uint256",
              "name": "registeredAt",
              "type": "uint256"
            }
          ],
          "internalType": "struct ChannelRegistry.ChannelInfo[]",
          "name": "",
          "type": "tuple[]"
        }
      ],
      "stateMutability": "view",
      "type": "function"
    },
    {
      "inputs": [
        {
          "internalType": "uint256",
          "name": "index",
          "type": "uint256"
        }
      ],
      "name": "getChannel",
      "outputs": [
        {
          "components": [
            {
              "internalType": "address",
              "name": "channelAddress",
              "type": "address"
            },
            {
              "internalType": "address",
              "name": "registeredBy",
              "type": "address"
            },
            {
              "internalType": "uint256",
              "name": "registeredAt",
              "type": "uint256"
            }
          ],
          "internalType": "struct ChannelRegistry.ChannelInfo",
          "name": "",
          "type": "tuple"
        }
      ],
      "stateMutability": "view",
      "type": "function"
    },
    {
      "inputs": [],
      "name": "getChannelCount",
      "outputs": [
        {
          "internalType": "uint256",
          "name": "",
          "type": "uint256"
        }
      ],
      "stateMutability": "view",
      "type": "function"
    },
    {
      "inputs": [
        {
          "internalType": "uint256",
          "name": "startIndex",
          "type": "uint256"
        },
        {
          "internalType": "uint256",
          "name": "count",
          "type": "uint256"
        }
      ],
      "name": "getChannels",
      "outputs": [
        {
          "components": [
            {
              "internalType": "address",
              "name": "channelAddress",
              "type": "address"
            },
            {
              "internalType": "address",
              "name": "registeredBy",
              "type": "address"
            },
            {
              "internalType": "uint256",
              "name": "registeredAt",
              "type": "uint256"
            }
          ],
          "internalType": "struct ChannelRegistry.ChannelInfo[]",
          "name": "",
          "type": "tuple[]"
        }
      ],
      "stateMutability": "view",
      "type": "function"
    },
    {
      "inputs": [
        {
          "internalType": "address",
          "name": "creator",
          "type": "address"
        }
      ],
      "name": "getChannelsByCreator",
      "outputs": [
        {
          "internalType": "uint256[]",
          "name": "",
          "type": "uint256[]"
        }
      ],
      "stateMutability": "view",
      "type": "function"
    },
    {
      "inputs": [
        {
          "internalType": "address",
          "name": "",
          "type": "address"
        }
      ],
      "name": "isRegistered",
      "outputs": [
        {
          "internalType": "bool",
          "name": "",
          "type": "bool"
        }
      ],
      "stateMutability": "view",
      "type": "function"
    },
    {
      "inputs": [
        {
          "internalType": "address",
          "name": "channelAddress",
          "type": "address"
        }
      ],
      "name": "registerChannel",
      "outputs": [
        {
          "internalType": "uint256",
          "name": "index",
          "type": "uint256"
        }
      ],
      "stateMutability": "nonpayable",
      "type": "function"
    },
    {
      "inputs": [],
      "name": "userRegistry",
      "outputs": [
        {
          "internalType": "contract UserRegistry",
          "name": "",
          "type": "address"
        }
      ],
      "stateMutability": "view",
      "type": "function"
    }
  ],
  "bytecode": "0x60a060405234801561001057600080fd5b5060405161316738038061316783398101604081905261002f9161009a565b6001600160a01b0381166100895760405162461bcd60e51b815260206004820152601860248201527f496e76616c696420726567697374727920616464726573730000000000000000604482015260640160405180910390fd5b6001600160a01b03166080526100ca565b6000602082840312156100ac57600080fd5b81516001600160a01b03811681146100c357600080fd5b9392505050565b60805161307b6100ec600039600081816101250152610432015261307b6000f3fe60806040523480156200001157600080fd5b5060043610620000b75760003560e01c80638077c983116200007a5780638077c9831462000179578063a6767f2b14620001b0578063c3c5a54714620001c7578063cc200a0d14620001fe578063d72ce3b11462000215578063e5949b5d146200022c57600080fd5b80630eb8fe7a14620000bc57806310df54a014620000d35780633fd6537c14620000f95780635c7460d6146200011f5780635dac32821462000160575b600080fd5b6000545b6040519081526020015b60405180910390f35b620000ea620000e436600462000a6d565b6200026a565b604051620000ca919062000a87565b620001106200010a36600462000ad4565b62000334565b604051620000ca919062000af9565b620001477f000000000000000000000000000000000000000000000000000000000000000081565b6040516001600160a01b039091168152602001620000ca565b6200016a620003a2565b604051620000ca919062000b3f565b620001906200018a36600462000bf2565b6200042b565b604080516001600160a01b039093168352602083019190915201620000ca565b620000c0620001c136600462000c82565b62000664565b620001ed620001d836600462000ad4565b60016020526000908152604090205460ff1681565b6040519015158152602001620000ca565b620000c06200020f36600462000ad4565b62000696565b6200016a6200022636600462000caf565b6200086f565b620002436200023d36600462000a6d565b62000a1e565b604080516001600160a01b03948516815293909216602084015290820152606001620000ca565b6040805160608101825260008082526020820181905291810182905290548210620002d25760405162461bcd60e51b8152602060048201526013602482015272496e646578206f7574206f6620626f756e647360681b60448201526064015b60405180910390fd5b60008281548110620002e857620002e862000cd2565b600091825260209182902060408051606081018252600390930290910180546001600160a01b039081168452600182015416938301939093526002909201549181019190915292915050565b6001600160a01b0381166000908152600260209081526040918290208054835181840281018401909452808452606093928301828280156200039657602002820191906000526020600020905b81548152602001906001019080831162000381575b50505050509050919050565b60606000805480602002602001604051908101604052809291908181526020016000905b8282101562000422576000848152602090819020604080516060810182526003860290920180546001600160a01b03908116845260018083015490911684860152600290910154918301919091529083529092019101620003c6565b50505050905090565b60008060007f00000000000000000000000000000000000000000000000000000000000000008888888888604051620004649062000a5f565b620004759695949392919062000d11565b604051809103906000f08015801562000492573d6000803e3d6000fd5b5060405163f2fde38b60e01b81523360048201529091506001600160a01b0382169063f2fde38b90602401600060405180830381600087803b158015620004d857600080fd5b505af1158015620004ed573d6000803e3d6000fd5b505060008054604080516060810182526001600160a01b03808816808352336020808501828152428688019081526001808a018b558a8052965160038a027f290decd9548b62a8d60345a988386fc84ba6bc95484008f6362f93160ef3e563810180549289166001600160a01b031993841617905592517f290decd9548b62a8d60345a988386fc84ba6bc95484008f6362f93160ef3e564840180549190981691161790955593517f290decd9548b62a8d60345a988386fc84ba6bc95484008f6362f93160ef3e56590940193909355818752838352848720805460ff191685179055808752600283528487208054948501815587529186209092018490559151969850919650879587955090935090917fa55ac5ebdb9bee5da90c5d4a6f104e5e2c116f97967ae2eb73f5fdfbdbb75bcb91a4604051829033906001600160a01b038616907fba0c6c82bc67b767acd37c7bee49236ae02c5134a36c31afff9636d2d833160390600090a4509550959350505050565b600260205281600052604060002081815481106200068157600080fd5b90600052602060002001600091509150505481565b60006001600160a01b038216620006e25760405162461bcd60e51b815260206004820152600f60248201526e496e76616c6964206164647265737360881b6044820152606401620002c9565b6001600160a01b03821660009081526001602052604090205460ff1615620007425760405162461bcd60e51b8152602060048201526012602482015271105b1c9958591e481c9959da5cdd195c995960721b6044820152606401620002c9565b5060008054604080516060810182526001600160a01b03808616808352336020808501828152428688019081526001808a018b558a8052965160038a027f290decd9548b62a8d60345a988386fc84ba6bc95484008f6362f93160ef3e563810180549289166001600160a01b031993841617905592517f290decd9548b62a8d60345a988386fc84ba6bc95484008f6362f93160ef3e564840180549190981691161790955593517f290decd9548b62a8d60345a988386fc84ba6bc95484008f6362f93160ef3e56590940193909355818752838352848720805460ff191685179055808752600283528487208054948501815587529186209092018490559151929384937fba0c6c82bc67b767acd37c7bee49236ae02c5134a36c31afff9636d2d83316039190a4919050565b600054606090808410620008cc576040805160008082526020820190925290620008c2565b6040805160608101825260008082526020808301829052928201528252600019909201910181620008945790505b5091505062000a18565b6000620008da848662000dac565b905081811115620008e85750805b6000620008f6868362000dc2565b905060008167ffffffffffffffff81111562000916576200091662000d80565b6040519080825280602002602001820160405280156200096357816020015b6040805160608101825260008082526020808301829052928201528252600019909201910181620009355790505b50905060005b8281101562000a1157600062000980828a62000dac565b8154811062000993576200099362000cd2565b600091825260209182902060408051606081018252600390930290910180546001600160a01b03908116845260018201541693830193909352600290920154918101919091528251839083908110620009f057620009f062000cd2565b6020026020010181905250808062000a089062000dd8565b91505062000969565b5093505050505b92915050565b6000818154811062000a2f57600080fd5b60009182526020909120600390910201805460018201546002909201546001600160a01b03918216935091169083565b6122518062000df583390190565b60006020828403121562000a8057600080fd5b5035919050565b81516001600160a01b03908116825260208084015190911690820152604080830151908201526060810162000a18565b80356001600160a01b038116811462000acf57600080fd5b919050565b60006020828403121562000ae757600080fd5b62000af28262000ab7565b9392505050565b6020808252825182820181905260009190848201906040850190845b8181101562000b335783518352928401929184019160010162000b15565b50909695505050505050565b6020808252825182820181905260009190848201906040850190845b8181101562000b335762000b9283855180516001600160a01b03908116835260208083015190911690830152604090810151910152565b928401926060929092019160010162000b5b565b60008083601f84011262000bb957600080fd5b50813567ffffffffffffffff81111562000bd257600080fd5b60208301915083602082850101111562000beb57600080fd5b9250929050565b60008060008060006060868803121562000c0b57600080fd5b853567ffffffffffffffff8082111562000c2457600080fd5b62000c3289838a0162000ba6565b9097509550602088013591508082111562000c4c57600080fd5b5062000c5b8882890162000ba6565b90945092505060408601356002811062000c7457600080fd5b809150509295509295909350565b6000806040838503121562000c9657600080fd5b62000ca18362000ab7565b946020939093013593505050565b6000806040838503121562000cc357600080fd5b50508035926020909101359150565b634e487b7160e01b600052603260045260246000fd5b81835281816020850137506000828201602090810191909152601f909101601f19169091010190565b6001600160a01b038716815260806020820181905260009062000d38908301878962000ce8565b828103604084015262000d4d81868862000ce8565b9150506002831062000d6f57634e487b7160e01b600052602160045260246000fd5b826060830152979650505050505050565b634e487b7160e01b600052604160045260246000fd5b634e487b7160e01b600052601160045260246000fd5b8082018082111562000a185762000a1862000d96565b8181038181111562000a185762000a1862000d96565b60006001820162000ded5762000ded62000d96565b506001019056fe60a06040523480156200001157600080fd5b50604051620022513803806200225183398101604081905262000034916200029e565b6001600160a01b038416620000905760405162461bcd60e51b815260206004820152601860248201527f496e76616c69642072656769737472792061646472657373000000000000000060448201526064015b60405180910390fd5b6000835111620000d35760405162461bcd60e51b815260206004820152600d60248201526c13985b59481c995c5d5a5c9959609a1b604482015260640162000087565b606483511115620001175760405162461bcd60e51b815260206004820152600d60248201526c4e616d6520746f6f206c6f6e6760981b604482015260640162000087565b6101f4825111156200016c5760405162461bcd60e51b815260206004820152601460248201527f4465736372697074696f6e20746f6f206c6f6e67000000000000000000000000604482015260640162000087565b6001600160a01b038416608052600380546001600160a01b031916331790556000620001998482620003cf565b506001620001a88382620003cf565b506006805482919060ff191660018381811115620001ca57620001ca6200049b565b021790555050505050620004b1565b634e487b7160e01b600052604160045260246000fd5b600082601f8301126200020157600080fd5b81516001600160401b03808211156200021e576200021e620001d9565b604051601f8301601f19908116603f01168101908282118183101715620002495762000249620001d9565b816040528381526020925086838588010111156200026657600080fd5b600091505b838210156200028a57858201830151818301840152908201906200026b565b600093810190920192909252949350505050565b60008060008060808587031215620002b557600080fd5b84516001600160a01b0381168114620002cd57600080fd5b60208601519094506001600160401b0380821115620002eb57600080fd5b620002f988838901620001ef565b945060408701519150808211156200031057600080fd5b506200031f87828801620001ef565b9250506060850151600281106200033557600080fd5b939692955090935050565b600181811c908216806200035557607f821691505b6020821081036200037657634e487b7160e01b600052602260045260246000fd5b50919050565b601f821115620003ca57600081815260208120601f850160051c81016020861015620003a55750805b601f850160051c820191505b81811015620003c657828155600101620003b1565b5050505b505050565b81516001600160401b03811115620003eb57620003eb620001d9565b6200040381620003fc845462000340565b846200037c565b602080601f8311600181146200043b5760008415620004225750858301515b600019600386901b1c1916600185901b178555620003c6565b600085815260208120601f198616915b828110156200046c578886015182559484019460019091019084016200044b565b50858210156200048b5787850151600019600388901b60f8161c191681555b5050505050600190811b01905550565b634e487b7160e01b600052602160045260246000fd5b608051611d7d620004d46000396000818161023f0152610acf0152611d7d6000f3fe608060405234801561001057600080fd5b50600436106101585760003560e01c806386f79edb116100c3578063bf82e20c1161007c578063bf82e20c14610336578063c47f002714610349578063cb1a8b961461035c578063df698fc914610376578063eb6dfe3e14610389578063f2fde38b1461039c57600080fd5b806386f79edb146102b7578063895bfa54146102d75780638da5cb5b146102ea57806390c3f38f146102fd5780639e19a1ca14610310578063a7844d671461032357600080fd5b8063569abd8d11610115578063569abd8d1461021d5780635c1fe2c6146102325780635c7460d61461023a5780636630f88f146102795780637284e4161461028c57806376f81ceb1461029457600080fd5b806306fdde031461015d5780630d80fefd1461017b57806324d7806c1461019e57806330d281e0146101d157806331933916146101eb5780634be8362d146101fd575b600080fd5b6101656103af565b6040516101729190611753565b60405180910390f35b61018e61018936600461176d565b61043d565b6040516101729493929190611786565b6101c16101ac3660046117db565b60046020526000908152604090205460ff1681565b6040519015158152602001610172565b6101d961050f565b60405161017296959493929190611830565b6007545b604051908152602001610172565b61021061020b36600461189a565b6106f8565b6040516101729190611905565b61023061022b3660046117db565b6108fc565b005b610165610a16565b6102617f000000000000000000000000000000000000000000000000000000000000000081565b6040516001600160a01b039091168152602001610172565b6101ef610287366004611967565b610a23565b610165610d4b565b6101c16102a23660046117db565b60056020526000908152604090205460ff1681565b6102ca6102c536600461176d565b610d58565b60405161017291906119d9565b6102306102e53660046117db565b610e9f565b600354610261906001600160a01b031681565b61023061030b366004611967565b610f2e565b61021061031e36600461176d565b611006565b610230610331366004611967565b6111fa565b6102306103443660046117db565b6112bf565b610230610357366004611967565b611377565b6006546103699060ff1681565b60405161017291906119ec565b6102306103843660046117db565b611478565b6102306103973660046119fa565b611560565b6102306103aa3660046117db565b61160b565b600080546103bc90611a1b565b80601f01602080910402602001604051908101604052809291908181526020018280546103e890611a1b565b80156104355780601f1061040a57610100808354040283529160200191610435565b820191906000526020600020905b81548152906001019060200180831161041857829003601f168201915b505050505081565b6007818154811061044d57600080fd5b60009182526020909120600490910201805460018201546002830180546001600160a01b03938416955092909116929161048690611a1b565b80601f01602080910402602001604051908101604052809291908181526020018280546104b290611a1b565b80156104ff5780601f106104d4576101008083540402835291602001916104ff565b820191906000526020600020905b8154815290600101906020018083116104e257829003601f168201915b5050505050908060030154905084565b60035460065460075460008054606094859485948493849384936001936002936001600160a01b039093169260ff90921691869061054c90611a1b565b80601f016020809104026020016040519081016040528092919081815260200182805461057890611a1b565b80156105c55780601f1061059a576101008083540402835291602001916105c5565b820191906000526020600020905b8154815290600101906020018083116105a857829003601f168201915b505050505095508480546105d890611a1b565b80601f016020809104026020016040519081016040528092919081815260200182805461060490611a1b565b80156106515780601f1061062657610100808354040283529160200191610651565b820191906000526020600020905b81548152906001019060200180831161063457829003601f168201915b5050505050945083805461066490611a1b565b80601f016020809104026020016040519081016040528092919081815260200182805461069090611a1b565b80156106dd5780601f106106b2576101008083540402835291602001916106dd565b820191906000526020600020905b8154815290600101906020018083116106c057829003601f168201915b50505050509350955095509550955095509550909192939495565b60075460609080841061073f576040805160008082526020820190925290610736565b6107236116d3565b81526020019060019003908161071b5790505b509150506108f6565b600061074b8486611a81565b9050818111156107585750805b60006107648683611a94565b905060008167ffffffffffffffff81111561078157610781611a55565b6040519080825280602002602001820160405280156107ba57816020015b6107a76116d3565b81526020019060019003908161079f5790505b50905060005b828110156108ef5760076107d4828a611a81565b815481106107e4576107e4611aa7565b600091825260209182902060408051608081018252600490930290910180546001600160a01b039081168452600182015416938301939093526002830180549293929184019161083390611a1b565b80601f016020809104026020016040519081016040528092919081815260200182805461085f90611a1b565b80156108ac5780601f10610881576101008083540402835291602001916108ac565b820191906000526020600020905b81548152906001019060200180831161088f57829003601f168201915b505050505081526020016003820154815250508282815181106108d1576108d1611aa7565b602002602001018190525080806108e790611abd565b9150506107c0565b5093505050505b92915050565b6003546001600160a01b031633148061092457503360009081526004602052604090205460ff165b6109495760405162461bcd60e51b815260040161094090611ad6565b60405180910390fd5b6001600160a01b03811661096f5760405162461bcd60e51b815260040161094090611b02565b6001600160a01b03811660009081526004602052604090205460ff16156109c85760405162461bcd60e51b815260206004820152600d60248201526c20b63932b0b23c9030b236b4b760991b6044820152606401610940565b6001600160a01b038116600081815260046020526040808220805460ff19166001179055513392917fe7699cd3bfec59af9c20f732f56267848c4c8c4e6992d161e9c5435ac5ad723891a350565b600280546103bc90611a1b565b600081610a725760405162461bcd60e51b815260206004820152601760248201527f4d6573736167652063616e6e6f7420626520656d7074790000000000000000006044820152606401610940565b6103e8821115610ab75760405162461bcd60e51b815260206004820152601060248201526f4d65737361676520746f6f206c6f6e6760801b6044820152606401610940565b60405163031615b560e21b81523360048201526000907f00000000000000000000000000000000000000000000000000000000000000006001600160a01b031690630c5856d490602401602060405180830381865afa158015610b1e573d6000803e3d6000fd5b505050506040513d601f19601f82011682018060405250810190610b429190611b2b565b905060006001600160a01b038216610b5a5733610b5c565b815b9050600160065460ff166001811115610b7757610b776117f8565b03610c15576003546001600160a01b0382811691161480610bb057506001600160a01b03811660009081526004602052604090205460ff165b80610bd357506001600160a01b03811660009081526005602052604090205460ff165b610c155760405162461bcd60e51b8152602060048201526013602482015272139bdd08185b1b1bddd959081d1bc81c1bdcdd606a1b6044820152606401610940565b600780549050925060076040518060800160405280836001600160a01b03168152602001336001600160a01b0316815260200187878080601f01602080910402602001604051908101604052809392919081815260200183838082843760009201829052509385525050426020938401525083546001808201865594825290829020835160049092020180546001600160a01b03199081166001600160a01b039384161782559284015194810180549093169490911693909317905560408101519091906002820190610ce89082611b97565b5060608201518160030155505082336001600160a01b0316826001600160a01b03167fc34b45ab55266268379410e7c7047f589b5ea3d94aeb4513ab595eb82fb509d342604051610d3b91815260200190565b60405180910390a4505092915050565b600180546103bc90611a1b565b610d606116d3565b6007548210610daa5760405162461bcd60e51b815260206004820152601660248201527513595cdcd859d948191bd95cc81b9bdd08195e1a5cdd60521b6044820152606401610940565b60078281548110610dbd57610dbd611aa7565b600091825260209182902060408051608081018252600490930290910180546001600160a01b0390811684526001820154169383019390935260028301805492939291840191610e0c90611a1b565b80601f0160208091040260200160405190810160405280929190818152602001828054610e3890611a1b565b8015610e855780601f10610e5a57610100808354040283529160200191610e85565b820191906000526020600020905b815481529060010190602001808311610e6857829003601f168201915b505050505081526020016003820154815250509050919050565b6003546001600160a01b0316331480610ec757503360009081526004602052604090205460ff165b610ee35760405162461bcd60e51b815260040161094090611ad6565b6001600160a01b038116600081815260056020526040808220805460ff19169055513392917f29d4b2aa690da40f769cdd8726f56a5753347eb5cd68af3f0074f97bd15feb7091a350565b6003546001600160a01b0316331480610f5657503360009081526004602052604090205460ff165b610f725760405162461bcd60e51b815260040161094090611ad6565b6101f4811115610fbb5760405162461bcd60e51b81526020600482015260146024820152734465736372697074696f6e20746f6f206c6f6e6760601b6044820152606401610940565b6001610fc8828483611c57565b507fdbdc84bdf4319ffa157f81d25dd54211090e37ca6a9d0b90e2b8098aaceed1358282604051610ffa929190611d18565b60405180910390a15050565b60075460609080831115611018578092505b82600003611059576040805160008082526020820190925290611051565b61103e6116d3565b8152602001906001900390816110365790505b509392505050565b60008367ffffffffffffffff81111561107457611074611a55565b6040519080825280602002602001820160405280156110ad57816020015b61109a6116d3565b8152602001906001900390816110925790505b50905060006110bc8584611a94565b905060005b858110156111f05760076110d58284611a81565b815481106110e5576110e5611aa7565b600091825260209182902060408051608081018252600490930290910180546001600160a01b039081168452600182015416938301939093526002830180549293929184019161113490611a1b565b80601f016020809104026020016040519081016040528092919081815260200182805461116090611a1b565b80156111ad5780601f10611182576101008083540402835291602001916111ad565b820191906000526020600020905b81548152906001019060200180831161119057829003601f168201915b505050505081526020016003820154815250508382815181106111d2576111d2611aa7565b602002602001018190525080806111e890611abd565b9150506110c1565b5090949350505050565b6003546001600160a01b031633148061122257503360009081526004602052604090205460ff165b61123e5760405162461bcd60e51b815260040161094090611ad6565b6101f48111156112805760405162461bcd60e51b815260206004820152600d60248201526c4d4f544420746f6f206c6f6e6760981b6044820152606401610940565b600261128d828483611c57565b507f4f913dab784c0c61d2746594f983a3c2c001f11eb17c41cc4c132442c1f2047a8282604051610ffa929190611d18565b6003546001600160a01b03163314806112e757503360009081526004602052604090205460ff165b6113035760405162461bcd60e51b815260040161094090611ad6565b6001600160a01b0381166113295760405162461bcd60e51b815260040161094090611b02565b6001600160a01b038116600081815260056020526040808220805460ff19166001179055513392917f0a682bffcca2de3443f3cca6b957e221d2e7a338aaa89ee333cc464ad8b2150391a350565b6003546001600160a01b031633148061139f57503360009081526004602052604090205460ff165b6113bb5760405162461bcd60e51b815260040161094090611ad6565b806113f85760405162461bcd60e51b815260206004820152600d60248201526c13985b59481c995c5d5a5c9959609a1b6044820152606401610940565b60648111156114395760405162461bcd60e51b815260206004820152600d60248201526c4e616d6520746f6f206c6f6e6760981b6044820152606401610940565b6000611446828483611c57565b507f9f7688a97f1ac51fe03bac18af18d6810f9f11f0db08c59b1938a9ac825ef7448282604051610ffa929190611d18565b6003546001600160a01b031633146114be5760405162461bcd60e51b81526020600482015260096024820152682737ba1037bbb732b960b91b6044820152606401610940565b6001600160a01b03811660009081526004602052604090205460ff166115155760405162461bcd60e51b815260206004820152600c60248201526b2737ba1030b71030b236b4b760a11b6044820152606401610940565b6001600160a01b038116600081815260046020526040808220805460ff19169055513392917f633f865d7500a7dfa543fab3ff25abf2398a60188d15cb8a800afc7cbd12ec4a91a350565b6003546001600160a01b031633148061158857503360009081526004602052604090205460ff165b6115a45760405162461bcd60e51b815260040161094090611ad6565b6006805482919060ff1916600183818111156115c2576115c26117f8565b0217905550336001600160a01b03167fdfcb3e0db32d077d0284f54c9f29ac7ee21bab9f559a33bcf073a88c9412f8a68260405161160091906119ec565b60405180910390a250565b6003546001600160a01b031633146116515760405162461bcd60e51b81526020600482015260096024820152682737ba1037bbb732b960b91b6044820152606401610940565b6001600160a01b0381166116775760405162461bcd60e51b815260040161094090611b02565b6003546040516001600160a01b038084169216907f8be0079c531659141344cd1fd0a4f28419497f9722a3daafe3b4186f6b6457e090600090a3600380546001600160a01b0319166001600160a01b0392909216919091179055565b604051806080016040528060006001600160a01b0316815260200160006001600160a01b0316815260200160608152602001600081525090565b6000815180845260005b8181101561173357602081850181015186830182015201611717565b506000602082860101526020601f19601f83011685010191505092915050565b602081526000611766602083018461170d565b9392505050565b60006020828403121561177f57600080fd5b5035919050565b6001600160a01b038581168252841660208201526080604082018190526000906117b29083018561170d565b905082606083015295945050505050565b6001600160a01b03811681146117d857600080fd5b50565b6000602082840312156117ed57600080fd5b8135611766816117c3565b634e487b7160e01b600052602160045260246000fd5b6002811061182c57634e487b7160e01b600052602160045260246000fd5b9052565b60c08152600061184360c083018961170d565b8281036020840152611855818961170d565b90508281036040840152611869818861170d565b6001600160a01b038716606085015291506118899050608083018561180e565b8260a0830152979650505050505050565b600080604083850312156118ad57600080fd5b50508035926020909101359150565b600060018060a01b03808351168452806020840151166020850152506040820151608060408501526118f1608085018261170d565b606093840151949093019390935250919050565b6000602080830181845280855180835260408601915060408160051b870101925083870160005b8281101561195a57603f198886030184526119488583516118bc565b9450928501929085019060010161192c565b5092979650505050505050565b6000806020838503121561197a57600080fd5b823567ffffffffffffffff8082111561199257600080fd5b818501915085601f8301126119a657600080fd5b8135818111156119b557600080fd5b8660208285010111156119c757600080fd5b60209290920196919550909350505050565b60208152600061176660208301846118bc565b602081016108f6828461180e565b600060208284031215611a0c57600080fd5b81356002811061176657600080fd5b600181811c90821680611a2f57607f821691505b602082108103611a4f57634e487b7160e01b600052602260045260246000fd5b50919050565b634e487b7160e01b600052604160045260246000fd5b634e487b7160e01b600052601160045260246000fd5b808201808211156108f6576108f6611a6b565b818103818111156108f6576108f6611a6b565b634e487b7160e01b600052603260045260246000fd5b600060018201611acf57611acf611a6b565b5060010190565b6020808252601290820152712737ba1037bbb732b91037b91030b236b4b760711b604082015260600190565b6020808252600f908201526e496e76616c6964206164647265737360881b604082015260600190565b600060208284031215611b3d57600080fd5b8151611766816117c3565b601f821115611b9257600081815260208120601f850160051c81016020861015611b6f5750805b601f850160051c820191505b81811015611b8e57828155600101611b7b565b5050505b505050565b815167ffffffffffffffff811115611bb157611bb1611a55565b611bc581611bbf8454611a1b565b84611b48565b602080601f831160018114611bfa5760008415611be25750858301515b600019600386901b1c1916600185901b178555611b8e565b600085815260208120601f198616915b82811015611c2957888601518255948401946001909101908401611c0a565b5085821015611c475787850151600019600388901b60f8161c191681555b5050505050600190811b01905550565b67ffffffffffffffff831115611c6f57611c6f611a55565b611c8383611c7d8354611a1b565b83611b48565b6000601f841160018114611cb75760008515611c9f5750838201355b600019600387901b1c1916600186901b178355611d11565b600083815260209020601f19861690835b82811015611ce85786850135825560209485019460019092019101611cc8565b5086821015611d055760001960f88860031b161c19848701351681555b505060018560011b0183555b5050505050565b60208152816020820152818360408301376000818301604090810191909152601f909201601f1916010191905056fea2646970667358221220dae5fc85d57bd0d74088fce06cf4ce60eebae5bf85508596a5343ebe5d8f56c264736f6c63430008140033a2646970667358221220c03d4c9765b62b0289683a5790404248deac3b9813a81537ef0a5036e3fb120564736f6c63430008140033",
  "linkReferences": {},
  "deployedLinkReferences": {}
}