{
  "_format": "hh-sol-artifact-1",
  "contractName": "DMRegistry",
  "sourceName": "contracts/DMRegistry.sol",
  "abi": [
    {
      "inputs": [
        {
          "internalType": "address",
          "name": "_userRegistry",
          "type": "address"
        }
      ],
      "stateMutability": "nonpayable",
      "type": "constructor"
    },
    {
      "anonymous": false,
      "inputs": [
        {
          "indexed": true,
          "internalType": "address",
          "name": "conversation",
          "type": "address"
        },
        {
          "indexed": true,
          "internalType": "address",
          "name": "participant1",
          "type": "address"
        },
        {
          "indexed": true,
          "internalType": "address",
          "name": "participant2",
          "type": "address"
        }
      ],
      "name": "ConversationCreated",
      "type": "event"
    },
    {
      "inputs": [
        {
          "internalType": "address",
          "name": "user1",
          "type": "address"
        },
        {
          "internalType": "address",
          "name": "user2",
          "type": "address"
        }
      ],
      "name": "conversationExists",
      "outputs": [
        {
          "internalType": "bool",
          "name": "",
          "type": "bool"
        }
      ],
      "stateMutability": "view",
      "type": "function"
    },
    {
      "inputs": [
        {
          "internalType": "bytes32",
          "name": "",
          "type": "bytes32"
        }
      ],
      "name": "conversationLookup",
      "outputs": [
        {
          "internalType": "address",
          "name": "",
          "type": "address"
        }
      ],
      "stateMutability": "view",
      "type": "function"
    },
    {
      "inputs": [
        {
          "internalType": "address",
          "name": "otherUser",
          "type": "address"
        }
      ],
      "name": "createConversation",
      "outputs": [
        {
          "internalType": "address",
          "name": "conversationAddress",
          "type": "address"
        }
      ],
      "stateMutability": "nonpayable",
      "type": "function"
    },
    {
      "inputs": [
        {
          "internalType": "address",
          "name": "user1",
          "type": "address"
        },
        {
          "internalType": "address",
          "name": "user2",
          "type": "address"
        }
      ],
      "name": "getConversation",
      "outputs": [
        {
          "internalType": "address",
          "name": "",
          "type": "address"
        }
      ],
      "stateMutability": "view",
      "type": "function"
    },
    {
      "inputs": [
        {
          "internalType": "address",
          "name": "user",
          "type": "address"
        }
      ],
      "name": "getConversationCount",
      "outputs": [
        {
          "internalType": "uint256",
          "name": "",
          "type": "uint256"
        }
      ],
      "stateMutability": "view",
      "type": "function"
    },
    {
      "inputs": [
        {
          "internalType": "address",
          "name": "user",
          "type": "address"
        }
      ],
      "name": "getConversations",
      "outputs": [
        {
          "internalType": "address[]",
          "name": "",
          "type": "address[]"
        }
      ],
      "stateMutability": "view",
      "type": "function"
    },
    {
      "inputs": [
        {
          "internalType": "address",
          "name": "",
          "type": "address"
        },
        {
          "internalType": "uint256",
          "name": "",
          "type": "uint256"
        }
      ],
      "name": "userConversations",
      "outputs": [
        {
          "internalType": "address",
          "name": "",
          "type": "address"
        }
      ],
      "stateMutability": "view",
      "type": "function"
    },
    {
      "inputs": [],
      "name": "userRegistry",
      "outputs": [
        {
          "internalType": "contract UserRegistry",
          "name": "",
          "type": "address"
        }
      ],
      "stateMutability": "view",
      "type": "function"
    }
  ],
  "bytecode": "0x60a060405234801561001057600080fd5b50604051611aed380380611aed83398101604081905261002f9161009a565b6001600160a01b0381166100895760405162461bcd60e51b815260206004820152601860248201527f496e76616c696420726567697374727920616464726573730000000000000000604482015260640160405180910390fd5b6001600160a01b03166080526100ca565b6000602082840312156100ac57600080fd5b81516001600160a01b03811681146100c357600080fd5b9392505050565b608051611a026100eb6000396000818160c201526103a10152611a026000f3fe608060405234801561001057600080fd5b50600436106100885760003560e01c8063ccfd55e71161005b578063ccfd55e71461013b578063ce500a551461014e578063e26778c814610161578063fd1917141461018a57600080fd5b8063375eed271461008d5780635c7460d6146100bd578063727635d6146100e45780637f75883d1461011b575b600080fd5b6100a061009b36600461059b565b6101ad565b6040516001600160a01b0390911681526020015b60405180910390f35b6100a07f000000000000000000000000000000000000000000000000000000000000000081565b61010d6100f23660046105ce565b6001600160a01b031660009081526020819052604090205490565b6040519081526020016100b4565b61012e6101293660046105ce565b6101dc565b6040516100b491906105f0565b6100a061014936600461063d565b610250565b6100a061015c3660046105ce565b610288565b6100a061016f366004610667565b6001602052600090815260409020546001600160a01b031681565b61019d61019836600461059b565b6104b2565b60405190151581526020016100b4565b6000806101ba84846104e1565b6000908152600160205260409020546001600160a01b03169150505b92915050565b6001600160a01b0381166000908152602081815260409182902080548351818402810184019094528084526060939283018282801561024457602002820191906000526020600020905b81546001600160a01b03168152600190910190602001808311610226575b50505050509050919050565b6000602052816000526040600020818154811061026c57600080fd5b6000918252602090912001546001600160a01b03169150829050565b60006001600160a01b0382166102dc5760405162461bcd60e51b8152602060048201526014602482015273496e76616c69642075736572206164647265737360601b60448201526064015b60405180910390fd5b336001600160a01b038316036103295760405162461bcd60e51b815260206004820152601260248201527121b0b73737ba102226903cb7bab939b2b63360711b60448201526064016102d3565b600061033533846104e1565b6000818152600160205260409020549091506001600160a01b03161561039d5760405162461bcd60e51b815260206004820152601b60248201527f436f6e766572736174696f6e20616c726561647920657869737473000000000060448201526064016102d3565b60007f000000000000000000000000000000000000000000000000000000000000000033856040516103ce90610572565b6001600160a01b03938416815291831660208301529091166040820152606001604051809103906000f08015801561040a573d6000803e3d6000fd5b50600083815260016020818152604080842080546001600160a01b03199081166001600160a01b038881169182179093553380885287865284882080548089018255908952868920018054841683179055928c168088528488208054978801815588529487209095018054909116851790559051949750879550909390927ff949d4fe90996186411062955307dc5f793283557eb2d2b07589113e79b111d391a45050919050565b6000806104bf84846104e1565b6000908152600160205260409020546001600160a01b03161515949350505050565b6000816001600160a01b0316836001600160a01b03161015610544576040516bffffffffffffffffffffffff19606085811b8216602084015284901b1660348201526048015b6040516020818303038152906040528051906020012090506101d6565b6040516bffffffffffffffffffffffff19606084811b8216602084015285901b166034820152604801610527565b61134c8061068183390190565b80356001600160a01b038116811461059657600080fd5b919050565b600080604083850312156105ae57600080fd5b6105b78361057f565b91506105c56020840161057f565b90509250929050565b6000602082840312156105e057600080fd5b6105e98261057f565b9392505050565b6020808252825182820181905260009190848201906040850190845b818110156106315783516001600160a01b03168352928401929184019160010161060c565b50909695505050505050565b6000806040838503121561065057600080fd5b6106598361057f565b946020939093013593505050565b60006020828403121561067957600080fd5b503591905056fe60e06040523480156200001157600080fd5b506040516200134c3803806200134c8339810160408190526200003491620001de565b6001600160a01b038316620000905760405162461bcd60e51b815260206004820152601860248201527f496e76616c69642072656769737472792061646472657373000000000000000060448201526064015b60405180910390fd5b6001600160a01b038216620000e85760405162461bcd60e51b815260206004820152601460248201527f496e76616c6964207061727469636970616e7431000000000000000000000000604482015260640162000087565b6001600160a01b038116620001405760405162461bcd60e51b815260206004820152601460248201527f496e76616c6964207061727469636970616e7432000000000000000000000000604482015260640162000087565b806001600160a01b0316826001600160a01b031603620001a35760405162461bcd60e51b815260206004820152601e60248201527f5061727469636970616e7473206d75737420626520646966666572656e740000604482015260640162000087565b6001600160a01b0392831660805290821660a0521660c05262000228565b80516001600160a01b0381168114620001d957600080fd5b919050565b600080600060608486031215620001f457600080fd5b620001ff84620001c1565b92506200020f60208501620001c1565b91506200021f60408501620001c1565b90509250925092565b60805160a05160c0516110c36200028960003960008181610194015281816102230152818161058d015261096d01526000818161016f0152818161024a0152818161055201526109320152600081816101240152610bc001526110c36000f3fe608060405234801561001057600080fd5b50600436106100a95760003560e01c80637a1fa09a116100715780637a1fa09a1461015e57806386f79edb146101c8578063929066f5146101e85780639e19a1ca1461020b578063dc45111c1461021e578063e702701f1461024557600080fd5b80630d80fefd146100ae57806331933916146100da5780634be8362d146100ec57806355a541851461010c5780635c7460d61461011f575b600080fd5b6100c16100bc366004610c83565b61026c565b6040516100d19493929190610ce2565b60405180910390f35b6000545b6040519081526020016100d1565b6100ff6100fa366004610d1f565b61033e565b6040516100d19190610d8a565b6100de61011a366004610dec565b610542565b6101467f000000000000000000000000000000000000000000000000000000000000000081565b6040516001600160a01b0390911681526020016100d1565b600054604080516001600160a01b037f0000000000000000000000000000000000000000000000000000000000000000811682527f0000000000000000000000000000000000000000000000000000000000000000166020820152908101919091526060016100d1565b6101db6101d6366004610c83565b6107db565b6040516100d19190610e5e565b6101fb6101f6366004610e89565b610922565b60405190151581526020016100d1565b6100ff610219366004610c83565b6109a8565b6101467f000000000000000000000000000000000000000000000000000000000000000081565b6101467f000000000000000000000000000000000000000000000000000000000000000081565b6000818154811061027c57600080fd5b60009182526020909120600490910201805460018201546002830180546001600160a01b0393841695509290911692916102b590610ea6565b80601f01602080910402602001604051908101604052809291908181526020018280546102e190610ea6565b801561032e5780601f106103035761010080835404028352916020019161032e565b820191906000526020600020905b81548152906001019060200180831161031157829003601f168201915b5050505050908060030154905084565b60005460609080841061038557604080516000808252602082019092529061037c565b610369610c49565b8152602001906001900390816103615790505b5091505061053c565b60006103918486610f0c565b90508181111561039e5750805b60006103aa8683610f1f565b905060008167ffffffffffffffff8111156103c7576103c7610ee0565b60405190808252806020026020018201604052801561040057816020015b6103ed610c49565b8152602001906001900390816103e55790505b50905060005b8281101561053557600061041a828a610f0c565b8154811061042a5761042a610f32565b600091825260209182902060408051608081018252600490930290910180546001600160a01b039081168452600182015416938301939093526002830180549293929184019161047990610ea6565b80601f01602080910402602001604051908101604052809291908181526020018280546104a590610ea6565b80156104f25780601f106104c7576101008083540402835291602001916104f2565b820191906000526020600020905b8154815290600101906020018083116104d557829003601f168201915b5050505050815260200160038201548152505082828151811061051757610517610f32565b6020026020010181905250808061052d90610f48565b915050610406565b5093505050505b92915050565b60008061054e33610b9c565b90507f00000000000000000000000000000000000000000000000000000000000000006001600160a01b0316816001600160a01b031614806105c157507f00000000000000000000000000000000000000000000000000000000000000006001600160a01b0316816001600160a01b0316145b6106065760405162461bcd60e51b8152602060048201526011602482015270139bdd0818481c185c9d1a58da5c185b9d607a1b60448201526064015b60405180910390fd5b826106535760405162461bcd60e51b815260206004820152601760248201527f4d6573736167652063616e6e6f7420626520656d70747900000000000000000060448201526064016105fd565b6107d08311156106985760405162461bcd60e51b815260206004820152601060248201526f4d65737361676520746f6f206c6f6e6760801b60448201526064016105fd565b60006106a333610b9c565b9050600080549050925060006040518060800160405280836001600160a01b03168152602001336001600160a01b0316815260200187878080601f01602080910402602001604051908101604052809392919081815260200183838082843760009201829052509385525050426020938401525083546001808201865594825290829020835160049092020180546001600160a01b03199081166001600160a01b0393841617825592840151948101805490931694909116939093179055604081015190919060028201906107789082610fb0565b5060608201518160030155505082336001600160a01b0316826001600160a01b03167fc34b45ab55266268379410e7c7047f589b5ea3d94aeb4513ab595eb82fb509d3426040516107cb91815260200190565b60405180910390a4505092915050565b6107e3610c49565b600054821061082d5760405162461bcd60e51b815260206004820152601660248201527513595cdcd859d948191bd95cc81b9bdd08195e1a5cdd60521b60448201526064016105fd565b6000828154811061084057610840610f32565b600091825260209182902060408051608081018252600490930290910180546001600160a01b039081168452600182015416938301939093526002830180549293929184019161088f90610ea6565b80601f01602080910402602001604051908101604052809291908181526020018280546108bb90610ea6565b80156109085780601f106108dd57610100808354040283529160200191610908565b820191906000526020600020905b8154815290600101906020018083116108eb57829003601f168201915b505050505081526020016003820154815250509050919050565b60008061092e83610b9c565b90507f00000000000000000000000000000000000000000000000000000000000000006001600160a01b0316816001600160a01b031614806109a157507f00000000000000000000000000000000000000000000000000000000000000006001600160a01b0316816001600160a01b0316145b9392505050565b600054606090808311156109ba578092505b826000036109fb5760408051600080825260208201909252906109f3565b6109e0610c49565b8152602001906001900390816109d85790505b509392505050565b60008367ffffffffffffffff811115610a1657610a16610ee0565b604051908082528060200260200182016040528015610a4f57816020015b610a3c610c49565b815260200190600190039081610a345790505b5090506000610a5e8584610f1f565b905060005b85811015610b92576000610a778284610f0c565b81548110610a8757610a87610f32565b600091825260209182902060408051608081018252600490930290910180546001600160a01b0390811684526001820154169383019390935260028301805492939291840191610ad690610ea6565b80601f0160208091040260200160405190810160405280929190818152602001828054610b0290610ea6565b8015610b4f5780601f10610b2457610100808354040283529160200191610b4f565b820191906000526020600020905b815481529060010190602001808311610b3257829003601f168201915b50505050508152602001600382015481525050838281518110610b7457610b74610f32565b60200260200101819052508080610b8a90610f48565b915050610a63565b5090949350505050565b60405163031615b560e21b81526001600160a01b03828116600483015260009182917f00000000000000000000000000000000000000000000000000000000000000001690630c5856d490602401602060405180830381865afa158015610c07573d6000803e3d6000fd5b505050506040513d601f19601f82011682018060405250810190610c2b9190611070565b90506001600160a01b03811615610c425792915050565b5090919050565b604051806080016040528060006001600160a01b0316815260200160006001600160a01b0316815260200160608152602001600081525090565b600060208284031215610c9557600080fd5b5035919050565b6000815180845260005b81811015610cc257602081850181015186830182015201610ca6565b506000602082860101526020601f19601f83011685010191505092915050565b6001600160a01b03858116825284166020820152608060408201819052600090610d0e90830185610c9c565b905082606083015295945050505050565b60008060408385031215610d3257600080fd5b50508035926020909101359150565b600060018060a01b0380835116845280602084015116602085015250604082015160806040850152610d766080850182610c9c565b606093840151949093019390935250919050565b6000602080830181845280855180835260408601915060408160051b870101925083870160005b82811015610ddf57603f19888603018452610dcd858351610d41565b94509285019290850190600101610db1565b5092979650505050505050565b60008060208385031215610dff57600080fd5b823567ffffffffffffffff80821115610e1757600080fd5b818501915085601f830112610e2b57600080fd5b813581811115610e3a57600080fd5b866020828501011115610e4c57600080fd5b60209290920196919550909350505050565b6020815260006109a16020830184610d41565b6001600160a01b0381168114610e8657600080fd5b50565b600060208284031215610e9b57600080fd5b81356109a181610e71565b600181811c90821680610eba57607f821691505b602082108103610eda57634e487b7160e01b600052602260045260246000fd5b50919050565b634e487b7160e01b600052604160045260246000fd5b634e487b7160e01b600052601160045260246000fd5b8082018082111561053c5761053c610ef6565b8181038181111561053c5761053c610ef6565b634e487b7160e01b600052603260045260246000fd5b600060018201610f5a57610f5a610ef6565b5060010190565b601f821115610fab57600081815260208120601f850160051c81016020861015610f885750805b601f850160051c820191505b81811015610fa757828155600101610f94565b5050505b505050565b815167ffffffffffffffff811115610fca57610fca610ee0565b610fde81610fd88454610ea6565b84610f61565b602080601f8311600181146110135760008415610ffb5750858301515b600019600386901b1c1916600185901b178555610fa7565b600085815260208120601f198616915b8281101561104257888601518255948401946001909101908401611023565b50858210156110605787850151600019600388901b60f8161c191681555b5050505050600190811b01905550565b60006020828403121561108257600080fd5b81516109a181610e7156fea264697066735822122045957c2cda94a95ce897bb09aed88b784170e20723f8d4386e0fa54fdcc95ca564736f6c63430008140033a2646970667358221220eecd79525e4f668f04a723f3c586b771ca0bd9513fe875bbdc6ee54e2a23637f64736f6c63430008140033",
  "linkReferences": {},
  "deployedLinkReferences": {}
}