{
  "_format": "hh-sol-artifact-1",
  "contractName": "FollowRegistry",
  "sourceName": "contracts/FollowRegistry.sol",
  "abi": [
    {
      "inputs": [
        {
          "internalType": "address",
          "name": "_userRegistry",
          "type": "address"
        }
      ],
      "stateMutability": "nonpayable",
      "type": "constructor"
    },
    {
      "anonymous": false,
      "inputs": [
        {
          "indexed": true,
          "internalType": "address",
          "name": "follower",
          "type": "address"
        },
        {
          "indexed": true,
          "internalType": "address",
          "name": "followee",
          "type": "address"
        }
      ],
      "name": "Followed",
      "type": "event"
    },
    {
      "anonymous": false,
      "inputs": [
        {
          "indexed": true,
          "internalType": "address",
          "name": "follower",
          "type": "address"
        },
        {
          "indexed": true,
          "internalType": "address",
          "name": "followee",
          "type": "address"
        }
      ],
      "name": "Unfollowed",
      "type": "event"
    },
    {
      "inputs": [
        {
          "internalType": "address",
          "name": "user",
          "type": "address"
        }
      ],
      "name": "follow",
      "outputs": [],
      "stateMutability": "nonpayable",
      "type": "function"
    },
    {
      "inputs": [
        {
          "internalType": "address",
          "name": "user",
          "type": "address"
        }
      ],
      "name": "getFollowerCount",
      "outputs": [
        {
          "internalType": "uint256",
          "name": "",
          "type": "uint256"
        }
      ],
      "stateMutability": "view",
      "type": "function"
    },
    {
      "inputs": [
        {
          "internalType": "address",
          "name": "user",
          "type": "address"
        }
      ],
      "name": "getFollowers",
      "outputs": [
        {
          "internalType": "address[]",
          "name": "",
          "type": "address[]"
        }
      ],
      "stateMutability": "view",
      "type": "function"
    },
    {
      "inputs": [
        {
          "internalType": "address",
          "name": "user",
          "type": "address"
        }
      ],
      "name": "getFollowing",
      "outputs": [
        {
          "internalType": "address[]",
          "name": "",
          "type": "address[]"
        }
      ],
      "stateMutability": "view",
      "type": "function"
    },
    {
      "inputs": [
        {
          "internalType": "address",
          "name": "user",
          "type": "address"
        }
      ],
      "name": "getFollowingCount",
      "outputs": [
        {
          "internalType": "uint256",
          "name": "",
          "type": "uint256"
        }
      ],
      "stateMutability": "view",
      "type": "function"
    },
    {
      "inputs": [
        {
          "internalType": "address",
          "name": "follower",
          "type": "address"
        },
        {
          "internalType": "address",
          "name": "followee",
          "type": "address"
        }
      ],
      "name": "isFollowing",
      "outputs": [
        {
          "internalType": "bool",
          "name": "",
          "type": "bool"
        }
      ],
      "stateMutability": "view",
      "type": "function"
    },
    {
      "inputs": [
        {
          "internalType": "address",
          "name": "user",
          "type": "address"
        }
      ],
      "name": "unfollow",
      "outputs": [],
      "stateMutability": "nonpayable",
      "type": "function"
    },
    {
      "inputs": [],
      "name": "userRegistry",
      "outputs": [
        {
          "internalType": "contract IUserRegistry",
          "name": "",
          "type": "address"
        }
      ],
      "stateMutability": "view",
      "type": "function"
    }
  ],
  "bytecode": "0x60a060405234801561001057600080fd5b50604051610b2d380380610b2d83398101604081905261002f91610040565b6001600160a01b0316608052610070565b60006020828403121561005257600080fd5b81516001600160a01b038116811461006957600080fd5b9392505050565b608051610a9c6100916000396000818160ba01526108950152610a9c6000f3fe608060405234801561001057600080fd5b50600436106100885760003560e01c8063c2fe20221161005b578063c2fe20221461011c578063cb04c9701461013c578063d8236dff14610173578063fab7d5361461018657600080fd5b8063015a4ead1461008d5780634dbf27cc146100a25780635c7460d6146100b557806399ec3a42146100f9575b600080fd5b6100a061009b366004610937565b6101af565b005b6100a06100b0366004610937565b610580565b6100dc7f000000000000000000000000000000000000000000000000000000000000000081565b6040516001600160a01b0390911681526020015b60405180910390f35b61010c61010736600461095b565b61075c565b60405190151581526020016100f0565b61012f61012a366004610937565b61078b565b6040516100f09190610994565b61016561014a366004610937565b6001600160a01b031660009081526002602052604090205490565b6040519081526020016100f0565b61012f610181366004610937565b610801565b610165610194366004610937565b6001600160a01b031660009081526020819052604090205490565b60006101b9610873565b6001600160a01b038082166000908152600160209081526040808320938716835292905290812054919250036102265760405162461bcd60e51b815260206004820152600d60248201526c4e6f7420666f6c6c6f77696e6760981b60448201526064015b60405180910390fd5b6001600160a01b0380821660009081526001602081815260408084209487168452939052918120549091610259916109f7565b6001600160a01b03831660009081526020819052604081205491925090610282906001906109f7565b9050808214610353576001600160a01b03831660009081526020819052604081208054839081106102b5576102b5610a0a565b60009182526020808320909101546001600160a01b0387811684529183905260409092208054919092169250829190859081106102f4576102f4610a0a565b600091825260209091200180546001600160a01b0319166001600160a01b0392909216919091179055610328836001610a20565b6001600160a01b03808616600090815260016020908152604080832095909316825293909352909120555b6001600160a01b038316600090815260208190526040902080548061037a5761037a610a33565b60008281526020808220830160001990810180546001600160a01b03191690559092019092556001600160a01b0385811680845260018084526040808620938a1686529284528285208590556003845282852091855292528220546103df91906109f7565b6001600160a01b03861660009081526002602052604081205491925090610408906001906109f7565b90508082146104da576001600160a01b038616600090815260026020526040812080548390811061043b5761043b610a0a565b60009182526020808320909101546001600160a01b038a811684526002909252604090922080549190921692508291908590811061047b5761047b610a0a565b600091825260209091200180546001600160a01b0319166001600160a01b03929092169190911790556104af836001610a20565b6001600160a01b03808916600090815260036020908152604080832095909316825293909352909120555b6001600160a01b038616600090815260026020526040902080548061050157610501610a33565b60008281526020808220830160001990810180546001600160a01b03191690559092019092556001600160a01b03888116808452600383526040808520928a16808652929093528284208490559151919290917f25b48012798806863072289354ed0b3849b73152482d9c6694e5cbb35f38d5e39190a3505050505050565b600061058a610873565b90506001600160a01b0382166105e25760405162461bcd60e51b815260206004820152601a60248201527f43616e6e6f7420666f6c6c6f77207a65726f2061646472657373000000000000604482015260640161021d565b806001600160a01b0316826001600160a01b03160361063c5760405162461bcd60e51b815260206004820152601660248201527521b0b73737ba103337b63637bb903cb7bab939b2b63360511b604482015260640161021d565b6001600160a01b03808216600090815260016020908152604080832093861683529290522054156106a35760405162461bcd60e51b8152602060048201526011602482015270416c726561647920666f6c6c6f77696e6760781b604482015260640161021d565b6001600160a01b038082166000818152602081815260408083208054600181810183558286528486209091018054978a166001600160a01b03199889168117909155868652915481855283862083875285528386205560028452828520805491820181558086528486209091018054909716861790965580845294546003835281842085855290925280832091909155517f6178e95c138f06036cdc07a49ed6a3d23008969fa143baeceb037ebae22e8d149190a35050565b6001600160a01b0380831660009081526001602090815260408083209385168352929052205415155b92915050565b6001600160a01b0381166000908152600260209081526040918290208054835181840281018401909452808452606093928301828280156107f557602002820191906000526020600020905b81546001600160a01b031681526001909101906020018083116107d7575b50505050509050919050565b6001600160a01b038116600090815260208181526040918290208054835181840281018401909452808452606093928301828280156107f5576020028201919060005260206000209081546001600160a01b031681526001909101906020018083116107d75750505050509050919050565b60405163262f837560e21b815233600482015260009081906001600160a01b037f000000000000000000000000000000000000000000000000000000000000000016906398be0dd490602401602060405180830381865afa1580156108dc573d6000803e3d6000fd5b505050506040513d601f19601f820116820180604052508101906109009190610a49565b90506001600160a01b038116156109175780610919565b335b91505090565b6001600160a01b038116811461093457600080fd5b50565b60006020828403121561094957600080fd5b81356109548161091f565b9392505050565b6000806040838503121561096e57600080fd5b82356109798161091f565b915060208301356109898161091f565b809150509250929050565b6020808252825182820181905260009190848201906040850190845b818110156109d55783516001600160a01b0316835292840192918401916001016109b0565b50909695505050505050565b634e487b7160e01b600052601160045260246000fd5b81810381811115610785576107856109e1565b634e487b7160e01b600052603260045260246000fd5b80820180821115610785576107856109e1565b634e487b7160e01b600052603160045260246000fd5b600060208284031215610a5b57600080fd5b81516109548161091f56fea26469706673582212201e46bb7573b1c171d60808b2526330b757089e975ef8132ed2afbb521e4045c064736f6c63430008140033",
  "linkReferences": {},
  "deployedLinkReferences": {}
}