{
  "_format": "hh-sol-artifact-1",
  "contractName": "ForumThread",
  "sourceName": "contracts/posts/ForumThread.sol",
  "abi": [
    {
      "inputs": [
        {
          "internalType": "address",
          "name": "_userRegistry",
          "type": "address"
        }
      ],
      "stateMutability": "nonpayable",
      "type": "constructor"
    },
    {
      "inputs": [],
      "name": "ContentEmpty",
      "type": "error"
    },
    {
      "inputs": [],
      "name": "ContentTooLong",
      "type": "error"
    },
    {
      "inputs": [],
      "name": "NotAuthorized",
      "type": "error"
    },
    {
      "inputs": [],
      "name": "ProfileRequired",
      "type": "error"
    },
    {
      "inputs": [],
      "name": "TagTooLong",
      "type": "error"
    },
    {
      "inputs": [],
      "name": "ThreadAlreadyDeleted",
      "type": "error"
    },
    {
      "inputs": [],
      "name": "ThreadNotFound",
      "type": "error"
    },
    {
      "inputs": [],
      "name": "TitleEmpty",
      "type": "error"
    },
    {
      "inputs": [],
      "name": "TitleTooLong",
      "type": "error"
    },
    {
      "inputs": [],
      "name": "TooManyTags",
      "type": "error"
    },
    {
      "anonymous": false,
      "inputs": [
        {
          "indexed": true,
          "internalType": "address",
          "name": "author",
          "type": "address"
        },
        {
          "indexed": false,
          "internalType": "address",
          "name": "sender",
          "type": "address"
        },
        {
          "indexed": true,
          "internalType": "uint256",
          "name": "threadIndex",
          "type": "uint256"
        },
        {
          "indexed": false,
          "internalType": "uint256",
          "name": "timestamp",
          "type": "uint256"
        }
      ],
      "name": "ThreadCreated",
      "type": "event"
    },
    {
      "anonymous": false,
      "inputs": [
        {
          "indexed": true,
          "internalType": "address",
          "name": "author",
          "type": "address"
        },
        {
          "indexed": true,
          "internalType": "uint256",
          "name": "threadIndex",
          "type": "uint256"
        }
      ],
      "name": "ThreadDeleted",
      "type": "event"
    },
    {
      "anonymous": false,
      "inputs": [
        {
          "indexed": true,
          "internalType": "address",
          "name": "author",
          "type": "address"
        },
        {
          "indexed": true,
          "internalType": "uint256",
          "name": "threadIndex",
          "type": "uint256"
        },
        {
          "indexed": false,
          "internalType": "uint256",
          "name": "editedAt",
          "type": "uint256"
        }
      ],
      "name": "ThreadEdited",
      "type": "event"
    },
    {
      "inputs": [],
      "name": "ENTITY_TYPE",
      "outputs": [
        {
          "internalType": "uint8",
          "name": "",
          "type": "uint8"
        }
      ],
      "stateMutability": "view",
      "type": "function"
    },
    {
      "inputs": [],
      "name": "MAX_CONTENT_LENGTH",
      "outputs": [
        {
          "internalType": "uint256",
          "name": "",
          "type": "uint256"
        }
      ],
      "stateMutability": "view",
      "type": "function"
    },
    {
      "inputs": [],
      "name": "MAX_TAGS",
      "outputs": [
        {
          "internalType": "uint256",
          "name": "",
          "type": "uint256"
        }
      ],
      "stateMutability": "view",
      "type": "function"
    },
    {
      "inputs": [],
      "name": "MAX_TAG_LENGTH",
      "outputs": [
        {
          "internalType": "uint256",
          "name": "",
          "type": "uint256"
        }
      ],
      "stateMutability": "view",
      "type": "function"
    },
    {
      "inputs": [],
      "name": "MAX_TITLE_LENGTH",
      "outputs": [
        {
          "internalType": "uint256",
          "name": "",
          "type": "uint256"
        }
      ],
      "stateMutability": "view",
      "type": "function"
    },
    {
      "inputs": [
        {
          "internalType": "address",
          "name": "",
          "type": "address"
        },
        {
          "internalType": "uint256",
          "name": "",
          "type": "uint256"
        }
      ],
      "name": "authorThreadIndices",
      "outputs": [
        {
          "internalType": "uint256",
          "name": "",
          "type": "uint256"
        }
      ],
      "stateMutability": "view",
      "type": "function"
    },
    {
      "inputs": [
        {
          "internalType": "string",
          "name": "_title",
          "type": "string"
        },
        {
          "internalType": "string",
          "name": "_content",
          "type": "string"
        },
        {
          "internalType": "string[]",
          "name": "_tags",
          "type": "string[]"
        }
      ],
      "name": "createThread",
      "outputs": [
        {
          "internalType": "uint256",
          "name": "",
          "type": "uint256"
        }
      ],
      "stateMutability": "nonpayable",
      "type": "function"
    },
    {
      "inputs": [
        {
          "internalType": "uint256",
          "name": "_threadIndex",
          "type": "uint256"
        }
      ],
      "name": "deleteThread",
      "outputs": [],
      "stateMutability": "nonpayable",
      "type": "function"
    },
    {
      "inputs": [
        {
          "internalType": "uint256",
          "name": "_threadIndex",
          "type": "uint256"
        },
        {
          "internalType": "string",
          "name": "_newContent",
          "type": "string"
        }
      ],
      "name": "editThread",
      "outputs": [],
      "stateMutability": "nonpayable",
      "type": "function"
    },
    {
      "inputs": [
        {
          "internalType": "address",
          "name": "_author",
          "type": "address"
        }
      ],
      "name": "getAuthorThreadCount",
      "outputs": [
        {
          "internalType": "uint256",
          "name": "",
          "type": "uint256"
        }
      ],
      "stateMutability": "view",
      "type": "function"
    },
    {
      "inputs": [
        {
          "internalType": "uint256",
          "name": "_count",
          "type": "uint256"
        }
      ],
      "name": "getLatestThreads",
      "outputs": [
        {
          "components": [
            {
              "internalType": "address",
              "name": "author",
              "type": "address"
            },
            {
              "internalType": "address",
              "name": "sender",
              "type": "address"
            },
            {
              "internalType": "string",
              "name": "title",
              "type": "string"
            },
            {
              "internalType": "string",
              "name": "content",
              "type": "string"
            },
            {
              "internalType": "uint256",
              "name": "timestamp",
              "type": "uint256"
            },
            {
              "internalType": "uint256",
              "name": "editedAt",
              "type": "uint256"
            },
            {
              "internalType": "bool",
              "name": "isDeleted",
              "type": "bool"
            },
            {
              "internalType": "string[]",
              "name": "tags",
              "type": "string[]"
            }
          ],
          "internalType": "struct ForumThread.Thread[]",
          "name": "",
          "type": "tuple[]"
        },
        {
          "internalType": "uint256[]",
          "name": "",
          "type": "uint256[]"
        }
      ],
      "stateMutability": "view",
      "type": "function"
    },
    {
      "inputs": [
        {
          "internalType": "address",
          "name": "_author",
          "type": "address"
        },
        {
          "internalType": "uint256",
          "name": "_count",
          "type": "uint256"
        }
      ],
      "name": "getLatestThreadsByAuthor",
      "outputs": [
        {
          "components": [
            {
              "internalType": "address",
              "name": "author",
              "type": "address"
            },
            {
              "internalType": "address",
              "name": "sender",
              "type": "address"
            },
            {
              "internalType": "string",
              "name": "title",
              "type": "string"
            },
            {
              "internalType": "string",
              "name": "content",
              "type": "string"
            },
            {
              "internalType": "uint256",
              "name": "timestamp",
              "type": "uint256"
            },
            {
              "internalType": "uint256",
              "name": "editedAt",
              "type": "uint256"
            },
            {
              "internalType": "bool",
              "name": "isDeleted",
              "type": "bool"
            },
            {
              "internalType": "string[]",
              "name": "tags",
              "type": "string[]"
            }
          ],
          "internalType": "struct ForumThread.Thread[]",
          "name": "",
          "type": "tuple[]"
        },
        {
          "internalType": "uint256[]",
          "name": "",
          "type": "uint256[]"
        }
      ],
      "stateMutability": "view",
      "type": "function"
    },
    {
      "inputs": [
        {
          "internalType": "uint256",
          "name": "_threadIndex",
          "type": "uint256"
        }
      ],
      "name": "getThread",
      "outputs": [
        {
          "components": [
            {
              "internalType": "address",
              "name": "author",
              "type": "address"
            },
            {
              "internalType": "address",
              "name": "sender",
              "type": "address"
            },
            {
              "internalType": "string",
              "name": "title",
              "type": "string"
            },
            {
              "internalType": "string",
              "name": "content",
              "type": "string"
            },
            {
              "internalType": "uint256",
              "name": "timestamp",
              "type": "uint256"
            },
            {
              "internalType": "uint256",
              "name": "editedAt",
              "type": "uint256"
            },
            {
              "internalType": "bool",
              "name": "isDeleted",
              "type": "bool"
            },
            {
              "internalType": "string[]",
              "name": "tags",
              "type": "string[]"
            }
          ],
          "internalType": "struct ForumThread.Thread",
          "name": "",
          "type": "tuple"
        }
      ],
      "stateMutability": "view",
      "type": "function"
    },
    {
      "inputs": [],
      "name": "getThreadCount",
      "outputs": [
        {
          "internalType": "uint256",
          "name": "",
          "type": "uint256"
        }
      ],
      "stateMutability": "view",
      "type": "function"
    },
    {
      "inputs": [
        {
          "internalType": "uint256",
          "name": "_threadIndex",
          "type": "uint256"
        }
      ],
      "name": "getThreadTags",
      "outputs": [
        {
          "internalType": "string[]",
          "name": "",
          "type": "string[]"
        }
      ],
      "stateMutability": "view",
      "type": "function"
    },
    {
      "inputs": [
        {
          "internalType": "uint256",
          "name": "_startIndex",
          "type": "uint256"
        },
        {
          "internalType": "uint256",
          "name": "_count",
          "type": "uint256"
        }
      ],
      "name": "getThreads",
      "outputs": [
        {
          "components": [
            {
              "internalType": "address",
              "name": "author",
              "type": "address"
            },
            {
              "internalType": "address",
              "name": "sender",
              "type": "address"
            },
            {
              "internalType": "string",
              "name": "title",
              "type": "string"
            },
            {
              "internalType": "string",
              "name": "content",
              "type": "string"
            },
            {
              "internalType": "uint256",
              "name": "timestamp",
              "type": "uint256"
            },
            {
              "internalType": "uint256",
              "name": "editedAt",
              "type": "uint256"
            },
            {
              "internalType": "bool",
              "name": "isDeleted",
              "type": "bool"
            },
            {
              "internalType": "string[]",
              "name": "tags",
              "type": "string[]"
            }
          ],
          "internalType": "struct ForumThread.Thread[]",
          "name": "",
          "type": "tuple[]"
        },
        {
          "internalType": "uint256[]",
          "name": "",
          "type": "uint256[]"
        }
      ],
      "stateMutability": "view",
      "type": "function"
    },
    {
      "inputs": [
        {
          "internalType": "uint256",
          "name": "",
          "type": "uint256"
        }
      ],
      "name": "threads",
      "outputs": [
        {
          "internalType": "address",
          "name": "author",
          "type": "address"
        },
        {
          "internalType": "address",
          "name": "sender",
          "type": "address"
        },
        {
          "internalType": "string",
          "name": "title",
          "type": "string"
        },
        {
          "internalType": "string",
          "name": "content",
          "type": "string"
        },
        {
          "internalType": "uint256",
          "name": "timestamp",
          "type": "uint256"
        },
        {
          "internalType": "uint256",
          "name": "editedAt",
          "type": "uint256"
        },
        {
          "internalType": "bool",
          "name": "isDeleted",
          "type": "bool"
        }
      ],
      "stateMutability": "view",
      "type": "function"
    },
    {
      "inputs": [],
      "name": "userRegistry",
      "outputs": [
        {
          "internalType": "contract UserRegistry",
          "name": "",
          "type": "address"
        }
      ],
      "stateMutability": "view",
      "type": "function"
    }
  ],
  "bytecode": "0x60a060405234801561001057600080fd5b50604051620025383803806200253883398101604081905261003191610042565b6001600160a01b0316608052610072565b60006020828403121561005457600080fd5b81516001600160a01b038116811461006b57600080fd5b9392505050565b60805161248e620000aa600039600081816101990152818161077d015281816108fd015281816119640152611b85015261248e6000f3fe608060405234801561001057600080fd5b50600436106101165760003560e01c80639de12115116100a2578063e928387811610071578063e928387814610257578063ee97430e1461026a578063f50496f414610293578063f552b2ba1461029b578063fcaa772a146102c157600080fd5b80639de1211514610221578063c1edc0ef14610229578063c879ef9f1461023c578063cce672261461024f57600080fd5b80634a26939c116100e95780634a26939c1461017f5780635c7460d6146101945780637273f4a7146101d35780639afa13cd146101ed5780639d3ace851461020057600080fd5b806305b746b51461011b5780632d5b53f0146101375780632ef9a16014610157578063368f1e231461015f575b600080fd5b61012461271081565b6040519081526020015b60405180910390f35b61014a610145366004611cf3565b6102d4565b60405161012e9190611da7565b61012460c881565b61017261016d366004611cf3565b6103f4565b60405161012e9190611e69565b61019261018d366004611ebe565b6106a3565b005b6101bb7f000000000000000000000000000000000000000000000000000000000000000081565b6040516001600160a01b03909116815260200161012e565b6101db600281565b60405160ff909116815260200161012e565b6101926101fb366004611cf3565b610868565b61021361020e366004611f1f565b610a1d565b60405161012e929190611f4b565b600054610124565b610124610237366004611f1f565b610e6a565b61021361024a366004611cf3565b610e9b565b610124600581565b610213610265366004611fd9565b6112af565b610124610278366004611ffb565b6001600160a01b031660009081526001602052604090205490565b610124602081565b6102ae6102a9366004611cf3565b6116b6565b60405161012e9796959493929190612018565b6101246102cf366004612078565b611827565b60005460609082106102f957604051630cd628bf60e21b815260040160405180910390fd5b6000828154811061030c5761030c612141565b9060005260206000209060080201600701805480602002602001604051908101604052809291908181526020016000905b828210156103e957838290600052602060002001805461035c90612157565b80601f016020809104026020016040519081016040528092919081815260200182805461038890612157565b80156103d55780601f106103aa576101008083540402835291602001916103d5565b820191906000526020600020905b8154815290600101906020018083116103b857829003601f168201915b50505050508152602001906001019061033d565b505050509050919050565b6103fc611c0e565b600054821061041e57604051630cd628bf60e21b815260040160405180910390fd5b6000828154811061043157610431612141565b60009182526020918290206040805161010081018252600890930290910180546001600160a01b039081168452600182015416938301939093526002830180549293929184019161048190612157565b80601f01602080910402602001604051908101604052809291908181526020018280546104ad90612157565b80156104fa5780601f106104cf576101008083540402835291602001916104fa565b820191906000526020600020905b8154815290600101906020018083116104dd57829003601f168201915b5050505050815260200160038201805461051390612157565b80601f016020809104026020016040519081016040528092919081815260200182805461053f90612157565b801561058c5780601f106105615761010080835404028352916020019161058c565b820191906000526020600020905b81548152906001019060200180831161056f57829003601f168201915b5050505050815260200160048201548152602001600582015481526020016006820160009054906101000a900460ff1615151515815260200160078201805480602002602001604051908101604052809291908181526020016000905b8282101561069557838290600052602060002001805461060890612157565b80601f016020809104026020016040519081016040528092919081815260200182805461063490612157565b80156106815780601f1061065657610100808354040283529160200191610681565b820191906000526020600020905b81548152906001019060200180831161066457829003601f168201915b5050505050815260200190600101906105e9565b505050915250909392505050565b60005483106106c557604051630cd628bf60e21b815260040160405180910390fd5b60008190036106e7576040516385a5c61760e01b815260040160405180910390fd5b61271081111561070a5760405163a743544560e01b815260040160405180910390fd5b600080848154811061071e5761071e612141565b60009182526020909120600890910201600681015490915060ff16156107565760405162de6f3560e41b815260040160405180910390fd5b8054604051633073df0d60e11b81523360048201526001600160a01b0391821660248201527f0000000000000000000000000000000000000000000000000000000000000000909116906360e7be1a90604401602060405180830381865afa1580156107c6573d6000803e3d6000fd5b505050506040513d601f19601f820116820180604052508101906107ea9190612191565b6108075760405163ea8e4eb560e01b815260040160405180910390fd5b60038101610816838583612218565b504260058201819055815460405191825285916001600160a01b03909116907f19bfbe85764f91bac11632e59e49423aa4feb18fd36744e1f831598b997591b39060200160405180910390a350505050565b600054811061088a57604051630cd628bf60e21b815260040160405180910390fd5b600080828154811061089e5761089e612141565b60009182526020909120600890910201600681015490915060ff16156108d65760405162de6f3560e41b815260040160405180910390fd5b8054604051633073df0d60e11b81523360048201526001600160a01b0391821660248201527f0000000000000000000000000000000000000000000000000000000000000000909116906360e7be1a90604401602060405180830381865afa158015610946573d6000803e3d6000fd5b505050506040513d601f19601f8201168201806040525081019061096a9190612191565b6109875760405163ea8e4eb560e01b815260040160405180910390fd5b60408051602081019091526000815260028201906109a590826122d9565b5060408051602081019091526000815260038201906109c490826122d9565b506109d3600782016000611c67565b60068101805460ff19166001179055805460405183916001600160a01b0316907f8cd4721e6f0e9012347e5ed6e6f1d3702647fc105e584dd6eb0670e6bbee020990600090a35050565b6001600160a01b038216600090815260016020526040902080546060918291801580610a47575084155b15610a9a576040805160008082526020820190925290610a7d565b610a6a611c0e565b815260200190600190039081610a625790505b506040805160008152602081019091529094509250610e63915050565b6000818611610aa95785610aab565b815b905060008167ffffffffffffffff811115610ac857610ac86121b3565b604051908082528060200260200182016040528015610b0157816020015b610aee611c0e565b815260200190600190039081610ae65790505b50905060008267ffffffffffffffff811115610b1f57610b1f6121b3565b604051908082528060200260200182016040528015610b48578160200160208202803683370190505b50905060005b83811015610e595760008682610b656001896123af565b610b6f91906123af565b81548110610b7f57610b7f612141565b9060005260206000200154905060008181548110610b9f57610b9f612141565b60009182526020918290206040805161010081018252600890930290910180546001600160a01b0390811684526001820154169383019390935260028301805492939291840191610bef90612157565b80601f0160208091040260200160405190810160405280929190818152602001828054610c1b90612157565b8015610c685780601f10610c3d57610100808354040283529160200191610c68565b820191906000526020600020905b815481529060010190602001808311610c4b57829003601f168201915b50505050508152602001600382018054610c8190612157565b80601f0160208091040260200160405190810160405280929190818152602001828054610cad90612157565b8015610cfa5780601f10610ccf57610100808354040283529160200191610cfa565b820191906000526020600020905b815481529060010190602001808311610cdd57829003601f168201915b5050505050815260200160048201548152602001600582015481526020016006820160009054906101000a900460ff1615151515815260200160078201805480602002602001604051908101604052809291908181526020016000905b82821015610e03578382906000526020600020018054610d7690612157565b80601f0160208091040260200160405190810160405280929190818152602001828054610da290612157565b8015610def5780601f10610dc457610100808354040283529160200191610def565b820191906000526020600020905b815481529060010190602001808311610dd257829003601f168201915b505050505081526020019060010190610d57565b5050505081525050848381518110610e1d57610e1d612141565b602002602001018190525080838381518110610e3b57610e3b612141565b60209081029190910101525080610e51816123c8565b915050610b4e565b5090955093505050505b9250929050565b60016020528160005260406000208181548110610e8657600080fd5b90600052602060002001600091509150505481565b6000546060908190801580610eae575083155b15610eff576040805160008082526020820190925290610ee4565b610ed1611c0e565b815260200190600190039081610ec95790505b50604080516000815260208101909152909590945092505050565b6000818511610f0e5784610f10565b815b905060008167ffffffffffffffff811115610f2d57610f2d6121b3565b604051908082528060200260200182016040528015610f6657816020015b610f53611c0e565b815260200190600190039081610f4b5790505b50905060008267ffffffffffffffff811115610f8457610f846121b3565b604051908082528060200260200182016040528015610fad578160200160208202803683370190505b50905060005b838110156112a257600081610fc96001886123af565b610fd391906123af565b905060008181548110610fe857610fe8612141565b60009182526020918290206040805161010081018252600890930290910180546001600160a01b039081168452600182015416938301939093526002830180549293929184019161103890612157565b80601f016020809104026020016040519081016040528092919081815260200182805461106490612157565b80156110b15780601f10611086576101008083540402835291602001916110b1565b820191906000526020600020905b81548152906001019060200180831161109457829003601f168201915b505050505081526020016003820180546110ca90612157565b80601f01602080910402602001604051908101604052809291908181526020018280546110f690612157565b80156111435780601f1061111857610100808354040283529160200191611143565b820191906000526020600020905b81548152906001019060200180831161112657829003601f168201915b5050505050815260200160048201548152602001600582015481526020016006820160009054906101000a900460ff1615151515815260200160078201805480602002602001604051908101604052809291908181526020016000905b8282101561124c5783829060005260206000200180546111bf90612157565b80601f01602080910402602001604051908101604052809291908181526020018280546111eb90612157565b80156112385780601f1061120d57610100808354040283529160200191611238565b820191906000526020600020905b81548152906001019060200180831161121b57829003601f168201915b5050505050815260200190600101906111a0565b505050508152505084838151811061126657611266612141565b60200260200101819052508083838151811061128457611284612141565b6020908102919091010152508061129a816123c8565b915050610fb3565b5090969095509350505050565b600054606090819080851061130b5760408051600080825260208201909252906112ef565b6112dc611c0e565b8152602001906001900390816112d45790505b506040805160008152602081019091529093509150610e639050565b600061131785876123e1565b9050818111156113245750805b600061133087836123af565b905060008167ffffffffffffffff81111561134d5761134d6121b3565b60405190808252806020026020018201604052801561138657816020015b611373611c0e565b81526020019060019003908161136b5790505b50905060008267ffffffffffffffff8111156113a4576113a46121b3565b6040519080825280602002602001820160405280156113cd578160200160208202803683370190505b50905060005b83811015610e595760006113e7828c6123e1565b9050600081815481106113fc576113fc612141565b60009182526020918290206040805161010081018252600890930290910180546001600160a01b039081168452600182015416938301939093526002830180549293929184019161144c90612157565b80601f016020809104026020016040519081016040528092919081815260200182805461147890612157565b80156114c55780601f1061149a576101008083540402835291602001916114c5565b820191906000526020600020905b8154815290600101906020018083116114a857829003601f168201915b505050505081526020016003820180546114de90612157565b80601f016020809104026020016040519081016040528092919081815260200182805461150a90612157565b80156115575780601f1061152c57610100808354040283529160200191611557565b820191906000526020600020905b81548152906001019060200180831161153a57829003601f168201915b5050505050815260200160048201548152602001600582015481526020016006820160009054906101000a900460ff1615151515815260200160078201805480602002602001604051908101604052809291908181526020016000905b828210156116605783829060005260206000200180546115d390612157565b80601f01602080910402602001604051908101604052809291908181526020018280546115ff90612157565b801561164c5780601f106116215761010080835404028352916020019161164c565b820191906000526020600020905b81548152906001019060200180831161162f57829003601f168201915b5050505050815260200190600101906115b4565b505050508152505084838151811061167a5761167a612141565b60200260200101819052508083838151811061169857611698612141565b602090810291909101015250806116ae816123c8565b9150506113d3565b600081815481106116c657600080fd5b60009182526020909120600890910201805460018201546002830180546001600160a01b0393841695509290911692916116ff90612157565b80601f016020809104026020016040519081016040528092919081815260200182805461172b90612157565b80156117785780601f1061174d57610100808354040283529160200191611778565b820191906000526020600020905b81548152906001019060200180831161175b57829003601f168201915b50505050509080600301805461178d90612157565b80601f01602080910402602001604051908101604052809291908181526020018280546117b990612157565b80156118065780601f106117db57610100808354040283529160200191611806565b820191906000526020600020905b8154815290600101906020018083116117e957829003601f168201915b50505050600483015460058401546006909401549293909290915060ff1687565b600085810361184957604051635d0ff12d60e01b815260040160405180910390fd5b60c886111561186b576040516324a25c5760e01b815260040160405180910390fd5b600084900361188d576040516385a5c61760e01b815260040160405180910390fd5b6127108411156118b05760405163a743544560e01b815260040160405180910390fd5b60058211156118d25760405163ee39e85560e01b815260040160405180910390fd5b60005b828110156119365760208484838181106118f1576118f1612141565b905060200281019061190391906123f4565b9050111561192457604051636a468ee160e11b815260040160405180910390fd5b8061192e816123c8565b9150506118d5565b50600061194233611b61565b60405163a787c80b60e01b81526001600160a01b0380831660048301529192507f00000000000000000000000000000000000000000000000000000000000000009091169063a787c80b90602401602060405180830381865afa1580156119ad573d6000803e3d6000fd5b505050506040513d601f19601f820116820180604052508101906119d19190612191565b6119ee5760405163640f9e7160e11b815260040160405180910390fd5b6000805460018101808355828052909190819083908110611a1157611a11612141565b6000918252602090912060089091020180546001600160a01b0385166001600160a01b031991821617825560018201805490911633179055905060028101611a5a8a8c83612218565b5060038101611a6a888a83612218565b5042600482015560006005820181905560068201805460ff191690555b85811015611aea5781600701878783818110611aa557611aa5612141565b9050602002810190611ab791906123f4565b82546001810184556000938452602090932090920191611ad79183612218565b5080611ae2816123c8565b915050611a87565b506001600160a01b038316600081815260016020818152604080842080549384018155845292819020909101859055815133815242918101919091528492917fdebb54090fef3e317d6d3186641b543176e6290f54d2c48e77c671d4aa2f8225910160405180910390a35098975050505050505050565b60405163031615b560e21b81526001600160a01b03828116600483015260009182917f00000000000000000000000000000000000000000000000000000000000000001690630c5856d490602401602060405180830381865afa158015611bcc573d6000803e3d6000fd5b505050506040513d601f19601f82011682018060405250810190611bf0919061243b565b90506001600160a01b03811615611c075792915050565b5090919050565b60405180610100016040528060006001600160a01b0316815260200160006001600160a01b0316815260200160608152602001606081526020016000815260200160008152602001600015158152602001606081525090565b5080546000825590600052602060002090810190611c859190611c88565b50565b80821115611ca5576000611c9c8282611ca9565b50600101611c88565b5090565b508054611cb590612157565b6000825580601f10611cc5575050565b601f016020900490600052602060002090810190611c8591905b80821115611ca55760008155600101611cdf565b600060208284031215611d0557600080fd5b5035919050565b6000815180845260005b81811015611d3257602081850181015186830182015201611d16565b506000602082860101526020601f19601f83011685010191505092915050565b600081518084526020808501808196508360051b8101915082860160005b85811015611d9a578284038952611d88848351611d0c565b98850198935090840190600101611d70565b5091979650505050505050565b602081526000611dba6020830184611d52565b9392505050565b600061010060018060a01b0383511684526020830151611dec60208601826001600160a01b03169052565b506040830151816040860152611e0482860182611d0c565b91505060608301518482036060860152611e1e8282611d0c565b9150506080830151608085015260a083015160a085015260c0830151611e4860c086018215159052565b5060e083015184820360e0860152611e608282611d52565b95945050505050565b602081526000611dba6020830184611dc1565b60008083601f840112611e8e57600080fd5b50813567ffffffffffffffff811115611ea657600080fd5b602083019150836020828501011115610e6357600080fd5b600080600060408486031215611ed357600080fd5b83359250602084013567ffffffffffffffff811115611ef157600080fd5b611efd86828701611e7c565b9497909650939450505050565b6001600160a01b0381168114611c8557600080fd5b60008060408385031215611f3257600080fd5b8235611f3d81611f0a565b946020939093013593505050565b6000604082016040835280855180835260608501915060608160051b8601019250602080880160005b83811015611fa257605f19888703018552611f90868351611dc1565b95509382019390820190600101611f74565b50508584038187015286518085528782019482019350915060005b82811015611d9a57845184529381019392810192600101611fbd565b60008060408385031215611fec57600080fd5b50508035926020909101359150565b60006020828403121561200d57600080fd5b8135611dba81611f0a565b6001600160a01b0388811682528716602082015260e06040820181905260009061204490830188611d0c565b82810360608401526120568188611d0c565b6080840196909652505060a0810192909252151560c090910152949350505050565b6000806000806000806060878903121561209157600080fd5b863567ffffffffffffffff808211156120a957600080fd5b6120b58a838b01611e7c565b909850965060208901359150808211156120ce57600080fd5b6120da8a838b01611e7c565b909650945060408901359150808211156120f357600080fd5b818901915089601f83011261210757600080fd5b81358181111561211657600080fd5b8a60208260051b850101111561212b57600080fd5b6020830194508093505050509295509295509295565b634e487b7160e01b600052603260045260246000fd5b600181811c9082168061216b57607f821691505b60208210810361218b57634e487b7160e01b600052602260045260246000fd5b50919050565b6000602082840312156121a357600080fd5b81518015158114611dba57600080fd5b634e487b7160e01b600052604160045260246000fd5b601f82111561221357600081815260208120601f850160051c810160208610156121f05750805b601f850160051c820191505b8181101561220f578281556001016121fc565b5050505b505050565b67ffffffffffffffff831115612230576122306121b3565b6122448361223e8354612157565b836121c9565b6000601f84116001811461227857600085156122605750838201355b600019600387901b1c1916600186901b1783556122d2565b600083815260209020601f19861690835b828110156122a95786850135825560209485019460019092019101612289565b50868210156122c65760001960f88860031b161c19848701351681555b505060018560011b0183555b5050505050565b815167ffffffffffffffff8111156122f3576122f36121b3565b612307816123018454612157565b846121c9565b602080601f83116001811461233c57600084156123245750858301515b600019600386901b1c1916600185901b17855561220f565b600085815260208120601f198616915b8281101561236b5788860151825594840194600190910190840161234c565b50858210156123895787850151600019600388901b60f8161c191681555b5050505050600190811b01905550565b634e487b7160e01b600052601160045260246000fd5b818103818111156123c2576123c2612399565b92915050565b6000600182016123da576123da612399565b5060010190565b808201808211156123c2576123c2612399565b6000808335601e1984360301811261240b57600080fd5b83018035915067ffffffffffffffff82111561242657600080fd5b602001915036819003821315610e6357600080fd5b60006020828403121561244d57600080fd5b8151611dba81611f0a56fea2646970667358221220a312df6b342db0b07b420cf9bf15c180c9584eddcb0c57162c7a7d6f8144747564736f6c63430008140033",
  "linkReferences": {},
  "deployedLinkReferences": {}
}