{
  "_format": "hh-sol-artifact-1",
  "contractName": "Replies",
  "sourceName": "contracts/posts/Replies.sol",
  "abi": [
    {
      "inputs": [
        {
          "internalType": "address",
          "name": "_userRegistry",
          "type": "address"
        }
      ],
      "stateMutability": "nonpayable",
      "type": "constructor"
    },
    {
      "inputs": [],
      "name": "ContentEmpty",
      "type": "error"
    },
    {
      "inputs": [],
      "name": "ContentTooLong",
      "type": "error"
    },
    {
      "inputs": [],
      "name": "InvalidParentReply",
      "type": "error"
    },
    {
      "inputs": [],
      "name": "NotAuthorized",
      "type": "error"
    },
    {
      "inputs": [],
      "name": "ParentReplyDeleted",
      "type": "error"
    },
    {
      "inputs": [],
      "name": "ProfileRequired",
      "type": "error"
    },
    {
      "inputs": [],
      "name": "ReplyIsDeleted",
      "type": "error"
    },
    {
      "inputs": [],
      "name": "ReplyNotFound",
      "type": "error"
    },
    {
      "anonymous": false,
      "inputs": [
        {
          "indexed": true,
          "internalType": "bytes32",
          "name": "parentId",
          "type": "bytes32"
        },
        {
          "indexed": true,
          "internalType": "address",
          "name": "profileOwner",
          "type": "address"
        },
        {
          "indexed": false,
          "internalType": "address",
          "name": "sender",
          "type": "address"
        },
        {
          "indexed": true,
          "internalType": "uint256",
          "name": "replyIndex",
          "type": "uint256"
        },
        {
          "indexed": false,
          "internalType": "uint256",
          "name": "parentReplyIndex",
          "type": "uint256"
        },
        {
          "indexed": false,
          "internalType": "uint256",
          "name": "depth",
          "type": "uint256"
        },
        {
          "indexed": false,
          "internalType": "uint256",
          "name": "timestamp",
          "type": "uint256"
        }
      ],
      "name": "ReplyCreated",
      "type": "event"
    },
    {
      "anonymous": false,
      "inputs": [
        {
          "indexed": true,
          "internalType": "uint256",
          "name": "replyIndex",
          "type": "uint256"
        },
        {
          "indexed": true,
          "internalType": "address",
          "name": "profileOwner",
          "type": "address"
        }
      ],
      "name": "ReplyDeleted",
      "type": "event"
    },
    {
      "anonymous": false,
      "inputs": [
        {
          "indexed": true,
          "internalType": "uint256",
          "name": "replyIndex",
          "type": "uint256"
        },
        {
          "indexed": true,
          "internalType": "address",
          "name": "profileOwner",
          "type": "address"
        },
        {
          "indexed": false,
          "internalType": "uint256",
          "name": "editedAt",
          "type": "uint256"
        }
      ],
      "name": "ReplyEdited",
      "type": "event"
    },
    {
      "inputs": [],
      "name": "MAX_CONTENT_LENGTH",
      "outputs": [
        {
          "internalType": "uint256",
          "name": "",
          "type": "uint256"
        }
      ],
      "stateMutability": "view",
      "type": "function"
    },
    {
      "inputs": [
        {
          "internalType": "address",
          "name": "contractAddress",
          "type": "address"
        },
        {
          "internalType": "uint8",
          "name": "entityType",
          "type": "uint8"
        },
        {
          "internalType": "uint256",
          "name": "entityIndex",
          "type": "uint256"
        },
        {
          "internalType": "string",
          "name": "_content",
          "type": "string"
        },
        {
          "internalType": "uint256",
          "name": "_parentReplyIndex",
          "type": "uint256"
        }
      ],
      "name": "addReply",
      "outputs": [
        {
          "internalType": "uint256",
          "name": "",
          "type": "uint256"
        }
      ],
      "stateMutability": "nonpayable",
      "type": "function"
    },
    {
      "inputs": [
        {
          "internalType": "uint256",
          "name": "",
          "type": "uint256"
        },
        {
          "internalType": "uint256",
          "name": "",
          "type": "uint256"
        }
      ],
      "name": "childReplies",
      "outputs": [
        {
          "internalType": "uint256",
          "name": "",
          "type": "uint256"
        }
      ],
      "stateMutability": "view",
      "type": "function"
    },
    {
      "inputs": [
        {
          "internalType": "uint256",
          "name": "_replyIndex",
          "type": "uint256"
        }
      ],
      "name": "deleteReply",
      "outputs": [],
      "stateMutability": "nonpayable",
      "type": "function"
    },
    {
      "inputs": [
        {
          "internalType": "uint256",
          "name": "_replyIndex",
          "type": "uint256"
        },
        {
          "internalType": "string",
          "name": "_newContent",
          "type": "string"
        }
      ],
      "name": "editReply",
      "outputs": [],
      "stateMutability": "nonpayable",
      "type": "function"
    },
    {
      "inputs": [
        {
          "internalType": "uint256",
          "name": "_replyIndex",
          "type": "uint256"
        },
        {
          "internalType": "uint256",
          "name": "startIndex",
          "type": "uint256"
        },
        {
          "internalType": "uint256",
          "name": "count",
          "type": "uint256"
        }
      ],
      "name": "getChildReplies",
      "outputs": [
        {
          "components": [
            {
              "internalType": "bytes32",
              "name": "parentId",
              "type": "bytes32"
            },
            {
              "internalType": "address",
              "name": "profileOwner",
              "type": "address"
            },
            {
              "internalType": "address",
              "name": "sender",
              "type": "address"
            },
            {
              "internalType": "string",
              "name": "content",
              "type": "string"
            },
            {
              "internalType": "uint256",
              "name": "timestamp",
              "type": "uint256"
            },
            {
              "internalType": "uint256",
              "name": "editedAt",
              "type": "uint256"
            },
            {
              "internalType": "bool",
              "name": "isDeleted",
              "type": "bool"
            },
            {
              "internalType": "uint256",
              "name": "parentReplyIndex",
              "type": "uint256"
            },
            {
              "internalType": "uint256",
              "name": "depth",
              "type": "uint256"
            }
          ],
          "internalType": "struct Replies.Reply[]",
          "name": "",
          "type": "tuple[]"
        },
        {
          "internalType": "uint256[]",
          "name": "",
          "type": "uint256[]"
        }
      ],
      "stateMutability": "view",
      "type": "function"
    },
    {
      "inputs": [
        {
          "internalType": "uint256",
          "name": "_replyIndex",
          "type": "uint256"
        }
      ],
      "name": "getChildReplyCount",
      "outputs": [
        {
          "internalType": "uint256",
          "name": "",
          "type": "uint256"
        }
      ],
      "stateMutability": "view",
      "type": "function"
    },
    {
      "inputs": [
        {
          "internalType": "bytes32",
          "name": "parentId",
          "type": "bytes32"
        },
        {
          "internalType": "uint256",
          "name": "count",
          "type": "uint256"
        }
      ],
      "name": "getLatestTopLevelReplies",
      "outputs": [
        {
          "components": [
            {
              "internalType": "bytes32",
              "name": "parentId",
              "type": "bytes32"
            },
            {
              "internalType": "address",
              "name": "profileOwner",
              "type": "address"
            },
            {
              "internalType": "address",
              "name": "sender",
              "type": "address"
            },
            {
              "internalType": "string",
              "name": "content",
              "type": "string"
            },
            {
              "internalType": "uint256",
              "name": "timestamp",
              "type": "uint256"
            },
            {
              "internalType": "uint256",
              "name": "editedAt",
              "type": "uint256"
            },
            {
              "internalType": "bool",
              "name": "isDeleted",
              "type": "bool"
            },
            {
              "internalType": "uint256",
              "name": "parentReplyIndex",
              "type": "uint256"
            },
            {
              "internalType": "uint256",
              "name": "depth",
              "type": "uint256"
            }
          ],
          "internalType": "struct Replies.Reply[]",
          "name": "",
          "type": "tuple[]"
        },
        {
          "internalType": "uint256[]",
          "name": "",
          "type": "uint256[]"
        }
      ],
      "stateMutability": "view",
      "type": "function"
    },
    {
      "inputs": [
        {
          "internalType": "address",
          "name": "contractAddress",
          "type": "address"
        },
        {
          "internalType": "uint8",
          "name": "entityType",
          "type": "uint8"
        },
        {
          "internalType": "uint256",
          "name": "entityIndex",
          "type": "uint256"
        }
      ],
      "name": "getParentId",
      "outputs": [
        {
          "internalType": "bytes32",
          "name": "",
          "type": "bytes32"
        }
      ],
      "stateMutability": "pure",
      "type": "function"
    },
    {
      "inputs": [
        {
          "internalType": "uint256",
          "name": "_replyIndex",
          "type": "uint256"
        }
      ],
      "name": "getReply",
      "outputs": [
        {
          "components": [
            {
              "internalType": "bytes32",
              "name": "parentId",
              "type": "bytes32"
            },
            {
              "internalType": "address",
              "name": "profileOwner",
              "type": "address"
            },
            {
              "internalType": "address",
              "name": "sender",
              "type": "address"
            },
            {
              "internalType": "string",
              "name": "content",
              "type": "string"
            },
            {
              "internalType": "uint256",
              "name": "timestamp",
              "type": "uint256"
            },
            {
              "internalType": "uint256",
              "name": "editedAt",
              "type": "uint256"
            },
            {
              "internalType": "bool",
              "name": "isDeleted",
              "type": "bool"
            },
            {
              "internalType": "uint256",
              "name": "parentReplyIndex",
              "type": "uint256"
            },
            {
              "internalType": "uint256",
              "name": "depth",
              "type": "uint256"
            }
          ],
          "internalType": "struct Replies.Reply",
          "name": "",
          "type": "tuple"
        }
      ],
      "stateMutability": "view",
      "type": "function"
    },
    {
      "inputs": [],
      "name": "getReplyCount",
      "outputs": [
        {
          "internalType": "uint256",
          "name": "",
          "type": "uint256"
        }
      ],
      "stateMutability": "view",
      "type": "function"
    },
    {
      "inputs": [
        {
          "internalType": "bytes32",
          "name": "parentId",
          "type": "bytes32"
        },
        {
          "internalType": "uint256",
          "name": "startIndex",
          "type": "uint256"
        },
        {
          "internalType": "uint256",
          "name": "count",
          "type": "uint256"
        }
      ],
      "name": "getTopLevelReplies",
      "outputs": [
        {
          "components": [
            {
              "internalType": "bytes32",
              "name": "parentId",
              "type": "bytes32"
            },
            {
              "internalType": "address",
              "name": "profileOwner",
              "type": "address"
            },
            {
              "internalType": "address",
              "name": "sender",
              "type": "address"
            },
            {
              "internalType": "string",
              "name": "content",
              "type": "string"
            },
            {
              "internalType": "uint256",
              "name": "timestamp",
              "type": "uint256"
            },
            {
              "internalType": "uint256",
              "name": "editedAt",
              "type": "uint256"
            },
            {
              "internalType": "bool",
              "name": "isDeleted",
              "type": "bool"
            },
            {
              "internalType": "uint256",
              "name": "parentReplyIndex",
              "type": "uint256"
            },
            {
              "internalType": "uint256",
              "name": "depth",
              "type": "uint256"
            }
          ],
          "internalType": "struct Replies.Reply[]",
          "name": "",
          "type": "tuple[]"
        },
        {
          "internalType": "uint256[]",
          "name": "",
          "type": "uint256[]"
        }
      ],
      "stateMutability": "view",
      "type": "function"
    },
    {
      "inputs": [
        {
          "internalType": "bytes32",
          "name": "parentId",
          "type": "bytes32"
        }
      ],
      "name": "getTopLevelReplyCount",
      "outputs": [
        {
          "internalType": "uint256",
          "name": "",
          "type": "uint256"
        }
      ],
      "stateMutability": "view",
      "type": "function"
    },
    {
      "inputs": [
        {
          "internalType": "uint256",
          "name": "",
          "type": "uint256"
        }
      ],
      "name": "replies",
      "outputs": [
        {
          "internalType": "bytes32",
          "name": "parentId",
          "type": "bytes32"
        },
        {
          "internalType": "address",
          "name": "profileOwner",
          "type": "address"
        },
        {
          "internalType": "address",
          "name": "sender",
          "type": "address"
        },
        {
          "internalType": "string",
          "name": "content",
          "type": "string"
        },
        {
          "internalType": "uint256",
          "name": "timestamp",
          "type": "uint256"
        },
        {
          "internalType": "uint256",
          "name": "editedAt",
          "type": "uint256"
        },
        {
          "internalType": "bool",
          "name": "isDeleted",
          "type": "bool"
        },
        {
          "internalType": "uint256",
          "name": "parentReplyIndex",
          "type": "uint256"
        },
        {
          "internalType": "uint256",
          "name": "depth",
          "type": "uint256"
        }
      ],
      "stateMutability": "view",
      "type": "function"
    },
    {
      "inputs": [
        {
          "internalType": "bytes32",
          "name": "",
          "type": "bytes32"
        },
        {
          "internalType": "uint256",
          "name": "",
          "type": "uint256"
        }
      ],
      "name": "repliesByParent",
      "outputs": [
        {
          "internalType": "uint256",
          "name": "",
          "type": "uint256"
        }
      ],
      "stateMutability": "view",
      "type": "function"
    },
    {
      "inputs": [],
      "name": "userRegistry",
      "outputs": [
        {
          "internalType": "contract UserRegistry",
          "name": "",
          "type": "address"
        }
      ],
      "stateMutability": "view",
      "type": "function"
    }
  ],
  "bytecode": "0x60a060405234801561001057600080fd5b50604051611e0e380380611e0e83398101604081905261002f91610040565b6001600160a01b0316608052610070565b60006020828403121561005257600080fd5b81516001600160a01b038116811461006957600080fd5b9392505050565b608051611d676100a7600039600081816101bd01528181610821015281816109a601528181610c2101526115c20152611d676000f3fe608060405234801561001057600080fd5b50600436106101005760003560e01c80635c7460d6116100975780638a27f0f1116100665780638a27f0f114610252578063d3cea6e614610272578063e094e8ca14610285578063edb241271461029857600080fd5b80635c7460d6146101b85780635c7c366d146101f7578063790aac2f1461021f578063806f0c381461023257600080fd5b80632bbd8ae3116100d35780632bbd8ae31461017557806332fb8e581461018a57806333b9be8d1461019d57806344e765c1146101b057600080fd5b8063026053861461010557806305b746b51461012b57806319f44204146101345780631c39809914610155575b600080fd5b610118610113366004611696565b6102ab565b6040519081526020015b60405180910390f35b6101186107d081565b6101476101423660046116b8565b6102dc565b6040516101229291906117bf565b61016861016336600461185a565b6105e9565b6040516101229190611873565b6101886101833660046118cf565b610743565b005b61018861019836600461185a565b61090d565b6101186101ab366004611696565b610a9f565b600054610118565b6101df7f000000000000000000000000000000000000000000000000000000000000000081565b6040516001600160a01b039091168152602001610122565b61020a61020536600461185a565b610abb565b6040516101229998979695949392919061191b565b61011861022d3660046119aa565b610baf565b61011861024036600461185a565b60009081526002602052604090205490565b61011861026036600461185a565b60009081526001602052604090205490565b610118610280366004611a23565b610f87565b6101476102933660046116b8565b610fe3565b6101476102a6366004611696565b6112ab565b600260205281600052604060002081815481106102c757600080fd5b90600052602060002001600091509150505481565b600083815260016020526040902080546060918291808610610362576040805160008082526020820190925290610329565b61031661164b565b81526020019060019003908161030e5790505b5060005b604051908082528060200260200182016040528015610356578160200160208202803683370190505b509350935050506105e1565b600061036e8688611a8d565b90508181111561037b5750805b60006103878883611aa6565b905060008167ffffffffffffffff8111156103a4576103a4611a61565b6040519080825280602002602001820160405280156103dd57816020015b6103ca61164b565b8152602001906001900390816103c25790505b50905060008267ffffffffffffffff8111156103fb576103fb611a61565b604051908082528060200260200182016040528015610424578160200160208202803683370190505b50905060005b838110156105d65760008761043f838e611a8d565b8154811061044f5761044f611ab9565b906000526020600020015490506000818154811061046f5761046f611ab9565b6000918252602091829020604080516101208101825260099093029091018054835260018101546001600160a01b03908116948401949094526002810154909316908201526003820180549192916060840191906104cc90611acf565b80601f01602080910402602001604051908101604052809291908181526020018280546104f890611acf565b80156105455780601f1061051a57610100808354040283529160200191610545565b820191906000526020600020905b81548152906001019060200180831161052857829003601f168201915b50505091835250506004820154602082015260058201546040820152600682015460ff16151560608201526007820154608082015260089091015460a090910152845185908490811061059a5761059a611ab9565b6020026020010181905250808383815181106105b8576105b8611ab9565b602090810291909101015250806105ce81611b09565b91505061042a565b509096509450505050505b935093915050565b6105f161164b565b60005482106106135760405163014e51db60e11b815260040160405180910390fd5b6000828154811061062657610626611ab9565b6000918252602091829020604080516101208101825260099093029091018054835260018101546001600160a01b039081169484019490945260028101549093169082015260038201805491929160608401919061068390611acf565b80601f01602080910402602001604051908101604052809291908181526020018280546106af90611acf565b80156106fc5780601f106106d1576101008083540402835291602001916106fc565b820191906000526020600020905b8154815290600101906020018083116106df57829003601f168201915b50505091835250506004820154602082015260058201546040820152600682015460ff16151560608201526007820154608082015260089091015460a09091015292915050565b60005483106107655760405163014e51db60e11b815260040160405180910390fd5b6000819003610787576040516385a5c61760e01b815260040160405180910390fd5b6107d08111156107aa5760405163a743544560e01b815260040160405180910390fd5b60008084815481106107be576107be611ab9565b60009182526020909120600990910201600681015490915060ff16156107f757604051636199bfbb60e01b815260040160405180910390fd5b6001810154604051633073df0d60e11b81523360048201526001600160a01b0391821660248201527f0000000000000000000000000000000000000000000000000000000000000000909116906360e7be1a90604401602060405180830381865afa15801561086a573d6000803e3d6000fd5b505050506040513d601f19601f8201168201806040525081019061088e9190611b22565b6108ab5760405163ea8e4eb560e01b815260040160405180910390fd5b600381016108ba838583611b93565b50426005820181905560018201546040519182526001600160a01b03169085907f6af5daa0634b04a2c6c4e62bf406dd489baf1492f05a6c962082f131995bc1149060200160405180910390a350505050565b600054811061092f5760405163014e51db60e11b815260040160405180910390fd5b600080828154811061094357610943611ab9565b60009182526020909120600990910201600681015490915060ff161561097c57604051636199bfbb60e01b815260040160405180910390fd5b6001810154604051633073df0d60e11b81523360048201526001600160a01b0391821660248201527f0000000000000000000000000000000000000000000000000000000000000000909116906360e7be1a90604401602060405180830381865afa1580156109ef573d6000803e3d6000fd5b505050506040513d601f19601f82011682018060405250810190610a139190611b22565b610a305760405163ea8e4eb560e01b815260040160405180910390fd5b6040805160208101909152600081526003820190610a4e9082611c54565b5060068101805460ff191660019081179091558101546040516001600160a01b039091169083907fc25134d13302aa494874db128d390de310215351d0c32fd653db2fe46b70229590600090a35050565b600160205281600052604060002081815481106102c757600080fd5b60008181548110610acb57600080fd5b600091825260209091206009909102018054600182015460028301546003840180549395506001600160a01b03928316949290911692610b0a90611acf565b80601f0160208091040260200160405190810160405280929190818152602001828054610b3690611acf565b8015610b835780601f10610b5857610100808354040283529160200191610b83565b820191906000526020600020905b815481529060010190602001808311610b6657829003601f168201915b50505060048401546005850154600686015460078701546008909701549596929591945060ff16925089565b6000828103610bd1576040516385a5c61760e01b815260040160405180910390fd5b6107d0831115610bf45760405163a743544560e01b815260040160405180910390fd5b6000610bff3361159e565b60405163a787c80b60e01b81526001600160a01b0380831660048301529192507f00000000000000000000000000000000000000000000000000000000000000009091169063a787c80b90602401602060405180830381865afa158015610c6a573d6000803e3d6000fd5b505050506040513d601f19601f82011682018060405250810190610c8e9190611b22565b610cab5760405163640f9e7160e11b815260040160405180910390fd5b6000610cb8898989610f87565b905060008415610d77576000610ccf600187611aa6565b6000549091508110610cf4576040516381ad8e4d60e01b815260040160405180910390fd5b6000808281548110610d0857610d08611ab9565b60009182526020909120600990910201600681015490915060ff1615610d4157604051630b34decb60e31b815260040160405180910390fd5b80548414610d62576040516381ad8e4d60e01b815260040160405180910390fd5b6008810154610d72906001611a8d565b925050505b6000808054905090506000604051806101200160405280858152602001866001600160a01b03168152602001336001600160a01b031681526020018a8a8080601f016020809104026020016040519081016040528093929190818152602001838380828437600092018290525093855250504260208085019190915260408085018490526060808601859052608086018e905260a09095018990528654600181810189559785529382902086516009909502019384559085015195830180546001600160a01b039788166001600160a01b031991821617909155908501516002840180549190971691161790945590820151919250906003820190610e7c9082611c54565b506080820151600482015560a0820151600582015560c082015160068201805460ff191691151591909117905560e08201516007820155610100909101516008909101556000869003610eee576000838152600160208181526040832080549283018155835290912001819055610f23565b60026000610efd600189611aa6565b815260208082019290925260400160009081208054600181018255908252919020018190555b604080513381526020810188905290810183905242606082015281906001600160a01b0386169085907f93ab9471e8f6c5f6185b0134afb28e81237b0b3e0284cbd865e1af2a12e34c199060800160405180910390a49a9950505050505050505050565b6040516bffffffffffffffffffffffff19606085901b1660208201526001600160f81b031960f884901b166034820152603581018290526000906055016040516020818303038152906040528051906020012090509392505050565b600083815260026020526040902080546060918291808610611037576040805160008082526020820190925290610329565b61101d61164b565b81526020019060019003908161101557905050600061032d565b60006110438688611a8d565b9050818111156110505750805b600061105c8883611aa6565b905060008167ffffffffffffffff81111561107957611079611a61565b6040519080825280602002602001820160405280156110b257816020015b61109f61164b565b8152602001906001900390816110975790505b50905060008267ffffffffffffffff8111156110d0576110d0611a61565b6040519080825280602002602001820160405280156110f9578160200160208202803683370190505b50905060005b838110156105d657600087611114838e611a8d565b8154811061112457611124611ab9565b906000526020600020015490506000818154811061114457611144611ab9565b6000918252602091829020604080516101208101825260099093029091018054835260018101546001600160a01b03908116948401949094526002810154909316908201526003820180549192916060840191906111a190611acf565b80601f01602080910402602001604051908101604052809291908181526020018280546111cd90611acf565b801561121a5780601f106111ef5761010080835404028352916020019161121a565b820191906000526020600020905b8154815290600101906020018083116111fd57829003601f168201915b50505091835250506004820154602082015260058201546040820152600682015460ff16151560608201526007820154608082015260089091015460a090910152845185908490811061126f5761126f611ab9565b60200260200101819052508083838151811061128d5761128d611ab9565b602090810291909101015250806112a381611b09565b9150506110ff565b6000828152600160205260409020805460609182918015806112cb575084155b1561131e576040805160008082526020820190925290611301565b6112ee61164b565b8152602001906001900390816112e65790505b506040805160008152602081019091529094509250611597915050565b600081861161132d578561132f565b815b9050600061133d8284611aa6565b905060008267ffffffffffffffff81111561135a5761135a611a61565b60405190808252806020026020018201604052801561139357816020015b61138061164b565b8152602001906001900390816113785790505b50905060008367ffffffffffffffff8111156113b1576113b1611a61565b6040519080825280602002602001820160405280156113da578160200160208202803683370190505b50905060005b8481101561158c576000876113f58387611a8d565b8154811061140557611405611ab9565b906000526020600020015490506000818154811061142557611425611ab9565b6000918252602091829020604080516101208101825260099093029091018054835260018101546001600160a01b039081169484019490945260028101549093169082015260038201805491929160608401919061148290611acf565b80601f01602080910402602001604051908101604052809291908181526020018280546114ae90611acf565b80156114fb5780601f106114d0576101008083540402835291602001916114fb565b820191906000526020600020905b8154815290600101906020018083116114de57829003601f168201915b50505091835250506004820154602082015260058201546040820152600682015460ff16151560608201526007820154608082015260089091015460a090910152845185908490811061155057611550611ab9565b60200260200101819052508083838151811061156e5761156e611ab9565b6020908102919091010152508061158481611b09565b9150506113e0565b509096509450505050505b9250929050565b60405163031615b560e21b81526001600160a01b03828116600483015260009182917f00000000000000000000000000000000000000000000000000000000000000001690630c5856d490602401602060405180830381865afa158015611609573d6000803e3d6000fd5b505050506040513d601f19601f8201168201806040525081019061162d9190611d14565b90506001600160a01b038116156116445792915050565b5090919050565b60408051610120810182526000808252602082018190529181018290526060808201526080810182905260a0810182905260c0810182905260e0810182905261010081019190915290565b600080604083850312156116a957600080fd5b50508035926020909101359150565b6000806000606084860312156116cd57600080fd5b505081359360208301359350604090920135919050565b6000815180845260005b8181101561170a576020818501810151868301820152016116ee565b506000602082860101526020601f19601f83011685010191505092915050565b60006101208251845260018060a01b036020840151166020850152604083015161175f60408601826001600160a01b03169052565b506060830151816060860152611777828601826116e4565b9150506080830151608085015260a083015160a085015260c08301516117a160c086018215159052565b5060e083810151908501526101009283015192909301919091525090565b6000604082016040835280855180835260608501915060608160051b8601019250602080880160005b8381101561181657605f1988870301855261180486835161172a565b955093820193908201906001016117e8565b50508584038187015286518085528782019482019350915060005b8281101561184d57845184529381019392810192600101611831565b5091979650505050505050565b60006020828403121561186c57600080fd5b5035919050565b602081526000611886602083018461172a565b9392505050565b60008083601f84011261189f57600080fd5b50813567ffffffffffffffff8111156118b757600080fd5b60208301915083602082850101111561159757600080fd5b6000806000604084860312156118e457600080fd5b83359250602084013567ffffffffffffffff81111561190257600080fd5b61190e8682870161188d565b9497909650939450505050565b8981526001600160a01b038981166020830152881660408201526101206060820181905260009061194e8382018a6116e4565b6080840198909852505060a081019490945291151560c084015260e083015261010090910152949350505050565b6001600160a01b038116811461199157600080fd5b50565b803560ff811681146119a557600080fd5b919050565b60008060008060008060a087890312156119c357600080fd5b86356119ce8161197c565b95506119dc60208801611994565b945060408701359350606087013567ffffffffffffffff8111156119ff57600080fd5b611a0b89828a0161188d565b979a9699509497949695608090950135949350505050565b600080600060608486031215611a3857600080fd5b8335611a438161197c565b9250611a5160208501611994565b9150604084013590509250925092565b634e487b7160e01b600052604160045260246000fd5b634e487b7160e01b600052601160045260246000fd5b80820180821115611aa057611aa0611a77565b92915050565b81810381811115611aa057611aa0611a77565b634e487b7160e01b600052603260045260246000fd5b600181811c90821680611ae357607f821691505b602082108103611b0357634e487b7160e01b600052602260045260246000fd5b50919050565b600060018201611b1b57611b1b611a77565b5060010190565b600060208284031215611b3457600080fd5b8151801515811461188657600080fd5b601f821115611b8e57600081815260208120601f850160051c81016020861015611b6b5750805b601f850160051c820191505b81811015611b8a57828155600101611b77565b5050505b505050565b67ffffffffffffffff831115611bab57611bab611a61565b611bbf83611bb98354611acf565b83611b44565b6000601f841160018114611bf35760008515611bdb5750838201355b600019600387901b1c1916600186901b178355611c4d565b600083815260209020601f19861690835b82811015611c245786850135825560209485019460019092019101611c04565b5086821015611c415760001960f88860031b161c19848701351681555b505060018560011b0183555b5050505050565b815167ffffffffffffffff811115611c6e57611c6e611a61565b611c8281611c7c8454611acf565b84611b44565b602080601f831160018114611cb75760008415611c9f5750858301515b600019600386901b1c1916600185901b178555611b8a565b600085815260208120601f198616915b82811015611ce657888601518255948401946001909101908401611cc7565b5085821015611d045787850151600019600388901b60f8161c191681555b5050505050600190811b01905550565b600060208284031215611d2657600080fd5b81516118868161197c56fea2646970667358221220aaa095d67cb99aa5454791d3fd876d9c151b15f663b097f13361c5bdc6f8664364736f6c63430008140033",
  "linkReferences": {},
  "deployedLinkReferences": {}
}