{
  "_format": "hh-sol-artifact-1",
  "contractName": "UserPosts",
  "sourceName": "contracts/posts/UserPosts.sol",
  "abi": [
    {
      "inputs": [
        {
          "internalType": "address",
          "name": "_userRegistry",
          "type": "address"
        }
      ],
      "stateMutability": "nonpayable",
      "type": "constructor"
    },
    {
      "inputs": [],
      "name": "ContentEmpty",
      "type": "error"
    },
    {
      "inputs": [],
      "name": "ContentTooLong",
      "type": "error"
    },
    {
      "inputs": [],
      "name": "NotAuthorized",
      "type": "error"
    },
    {
      "inputs": [],
      "name": "PostAlreadyDeleted",
      "type": "error"
    },
    {
      "inputs": [],
      "name": "PostNotFound",
      "type": "error"
    },
    {
      "inputs": [],
      "name": "ProfileRequired",
      "type": "error"
    },
    {
      "anonymous": false,
      "inputs": [
        {
          "indexed": true,
          "internalType": "address",
          "name": "profileOwner",
          "type": "address"
        },
        {
          "indexed": false,
          "internalType": "address",
          "name": "sender",
          "type": "address"
        },
        {
          "indexed": true,
          "internalType": "uint256",
          "name": "postIndex",
          "type": "uint256"
        },
        {
          "indexed": false,
          "internalType": "uint256",
          "name": "timestamp",
          "type": "uint256"
        }
      ],
      "name": "PostCreated",
      "type": "event"
    },
    {
      "anonymous": false,
      "inputs": [
        {
          "indexed": true,
          "internalType": "address",
          "name": "profileOwner",
          "type": "address"
        },
        {
          "indexed": true,
          "internalType": "uint256",
          "name": "postIndex",
          "type": "uint256"
        }
      ],
      "name": "PostDeleted",
      "type": "event"
    },
    {
      "anonymous": false,
      "inputs": [
        {
          "indexed": true,
          "internalType": "address",
          "name": "profileOwner",
          "type": "address"
        },
        {
          "indexed": true,
          "internalType": "uint256",
          "name": "postIndex",
          "type": "uint256"
        },
        {
          "indexed": false,
          "internalType": "uint256",
          "name": "editedAt",
          "type": "uint256"
        }
      ],
      "name": "PostEdited",
      "type": "event"
    },
    {
      "inputs": [],
      "name": "ENTITY_TYPE",
      "outputs": [
        {
          "internalType": "uint8",
          "name": "",
          "type": "uint8"
        }
      ],
      "stateMutability": "view",
      "type": "function"
    },
    {
      "inputs": [],
      "name": "MAX_CONTENT_LENGTH",
      "outputs": [
        {
          "internalType": "uint256",
          "name": "",
          "type": "uint256"
        }
      ],
      "stateMutability": "view",
      "type": "function"
    },
    {
      "inputs": [
        {
          "internalType": "string",
          "name": "_content",
          "type": "string"
        }
      ],
      "name": "createPost",
      "outputs": [
        {
          "internalType": "uint256",
          "name": "",
          "type": "uint256"
        }
      ],
      "stateMutability": "nonpayable",
      "type": "function"
    },
    {
      "inputs": [
        {
          "internalType": "uint256",
          "name": "_postIndex",
          "type": "uint256"
        }
      ],
      "name": "deletePost",
      "outputs": [],
      "stateMutability": "nonpayable",
      "type": "function"
    },
    {
      "inputs": [
        {
          "internalType": "uint256",
          "name": "_postIndex",
          "type": "uint256"
        },
        {
          "internalType": "string",
          "name": "_newContent",
          "type": "string"
        }
      ],
      "name": "editPost",
      "outputs": [],
      "stateMutability": "nonpayable",
      "type": "function"
    },
    {
      "inputs": [
        {
          "internalType": "uint256",
          "name": "count",
          "type": "uint256"
        }
      ],
      "name": "getLatestPosts",
      "outputs": [
        {
          "components": [
            {
              "internalType": "address",
              "name": "profileOwner",
              "type": "address"
            },
            {
              "internalType": "address",
              "name": "sender",
              "type": "address"
            },
            {
              "internalType": "string",
              "name": "content",
              "type": "string"
            },
            {
              "internalType": "uint256",
              "name": "timestamp",
              "type": "uint256"
            },
            {
              "internalType": "uint256",
              "name": "editedAt",
              "type": "uint256"
            },
            {
              "internalType": "bool",
              "name": "isDeleted",
              "type": "bool"
            }
          ],
          "internalType": "struct UserPosts.Post[]",
          "name": "",
          "type": "tuple[]"
        }
      ],
      "stateMutability": "view",
      "type": "function"
    },
    {
      "inputs": [
        {
          "internalType": "address",
          "name": "user",
          "type": "address"
        },
        {
          "internalType": "uint256",
          "name": "count",
          "type": "uint256"
        }
      ],
      "name": "getLatestUserPosts",
      "outputs": [
        {
          "components": [
            {
              "internalType": "address",
              "name": "profileOwner",
              "type": "address"
            },
            {
              "internalType": "address",
              "name": "sender",
              "type": "address"
            },
            {
              "internalType": "string",
              "name": "content",
              "type": "string"
            },
            {
              "internalType": "uint256",
              "name": "timestamp",
              "type": "uint256"
            },
            {
              "internalType": "uint256",
              "name": "editedAt",
              "type": "uint256"
            },
            {
              "internalType": "bool",
              "name": "isDeleted",
              "type": "bool"
            }
          ],
          "internalType": "struct UserPosts.Post[]",
          "name": "",
          "type": "tuple[]"
        },
        {
          "internalType": "uint256[]",
          "name": "",
          "type": "uint256[]"
        }
      ],
      "stateMutability": "view",
      "type": "function"
    },
    {
      "inputs": [
        {
          "internalType": "uint256",
          "name": "_postIndex",
          "type": "uint256"
        }
      ],
      "name": "getPost",
      "outputs": [
        {
          "components": [
            {
              "internalType": "address",
              "name": "profileOwner",
              "type": "address"
            },
            {
              "internalType": "address",
              "name": "sender",
              "type": "address"
            },
            {
              "internalType": "string",
              "name": "content",
              "type": "string"
            },
            {
              "internalType": "uint256",
              "name": "timestamp",
              "type": "uint256"
            },
            {
              "internalType": "uint256",
              "name": "editedAt",
              "type": "uint256"
            },
            {
              "internalType": "bool",
              "name": "isDeleted",
              "type": "bool"
            }
          ],
          "internalType": "struct UserPosts.Post",
          "name": "",
          "type": "tuple"
        }
      ],
      "stateMutability": "view",
      "type": "function"
    },
    {
      "inputs": [],
      "name": "getPostCount",
      "outputs": [
        {
          "internalType": "uint256",
          "name": "",
          "type": "uint256"
        }
      ],
      "stateMutability": "view",
      "type": "function"
    },
    {
      "inputs": [
        {
          "internalType": "address",
          "name": "user",
          "type": "address"
        }
      ],
      "name": "getUserPostCount",
      "outputs": [
        {
          "internalType": "uint256",
          "name": "",
          "type": "uint256"
        }
      ],
      "stateMutability": "view",
      "type": "function"
    },
    {
      "inputs": [
        {
          "internalType": "address",
          "name": "user",
          "type": "address"
        },
        {
          "internalType": "uint256",
          "name": "startIndex",
          "type": "uint256"
        },
        {
          "internalType": "uint256",
          "name": "count",
          "type": "uint256"
        }
      ],
      "name": "getUserPosts",
      "outputs": [
        {
          "components": [
            {
              "internalType": "address",
              "name": "profileOwner",
              "type": "address"
            },
            {
              "internalType": "address",
              "name": "sender",
              "type": "address"
            },
            {
              "internalType": "string",
              "name": "content",
              "type": "string"
            },
            {
              "internalType": "uint256",
              "name": "timestamp",
              "type": "uint256"
            },
            {
              "internalType": "uint256",
              "name": "editedAt",
              "type": "uint256"
            },
            {
              "internalType": "bool",
              "name": "isDeleted",
              "type": "bool"
            }
          ],
          "internalType": "struct UserPosts.Post[]",
          "name": "",
          "type": "tuple[]"
        },
        {
          "internalType": "uint256[]",
          "name": "",
          "type": "uint256[]"
        }
      ],
      "stateMutability": "view",
      "type": "function"
    },
    {
      "inputs": [
        {
          "internalType": "uint256",
          "name": "",
          "type": "uint256"
        }
      ],
      "name": "posts",
      "outputs": [
        {
          "internalType": "address",
          "name": "profileOwner",
          "type": "address"
        },
        {
          "internalType": "address",
          "name": "sender",
          "type": "address"
        },
        {
          "internalType": "string",
          "name": "content",
          "type": "string"
        },
        {
          "internalType": "uint256",
          "name": "timestamp",
          "type": "uint256"
        },
        {
          "internalType": "uint256",
          "name": "editedAt",
          "type": "uint256"
        },
        {
          "internalType": "bool",
          "name": "isDeleted",
          "type": "bool"
        }
      ],
      "stateMutability": "view",
      "type": "function"
    },
    {
      "inputs": [
        {
          "internalType": "address",
          "name": "",
          "type": "address"
        },
        {
          "internalType": "uint256",
          "name": "",
          "type": "uint256"
        }
      ],
      "name": "userPostIndices",
      "outputs": [
        {
          "internalType": "uint256",
          "name": "",
          "type": "uint256"
        }
      ],
      "stateMutability": "view",
      "type": "function"
    },
    {
      "inputs": [],
      "name": "userRegistry",
      "outputs": [
        {
          "internalType": "contract UserRegistry",
          "name": "",
          "type": "address"
        }
      ],
      "stateMutability": "view",
      "type": "function"
    }
  ],
  "bytecode": "0x60a060405234801561001057600080fd5b50604051611a47380380611a4783398101604081905261002f91610040565b6001600160a01b0316608052610070565b60006020828403121561005257600080fd5b81516001600160a01b038116811461006957600080fd5b9392505050565b6080516119a06100a7600039600081816101b30152818161031101528181610bb70152818161117d015261128c01526119a06000f3fe608060405234801561001057600080fd5b50600436106100e95760003560e01c80637273f4a71161008c578063bcc9540711610066578063bcc954071461023a578063c7303c6114610242578063d01308a214610255578063fa99654a1461026857600080fd5b80637273f4a7146101ed5780638c82d066146102075780639f6ee3931461022757600080fd5b80630b1e7f83116100c85780630b1e7f83146101485780633a24cb7b1461016d57806340731c241461018e5780635c7460d6146101ae57600080fd5b8062a09832146100ee57806305b746b51461012a578063094cd5ee14610133575b600080fd5b6101176100fc366004611377565b6001600160a01b031660009081526001602052604090205490565b6040519081526020015b60405180910390f35b6101176107d081565b61014661014136600461139b565b61027b565b005b61015b61015636600461139b565b610404565b604051610121969594939291906113fa565b61018061017b366004611446565b6104e7565b604051610121929190611534565b6101a161019c36600461139b565b6107c0565b604051610121919061157e565b6101d57f000000000000000000000000000000000000000000000000000000000000000081565b6040516001600160a01b039091168152602001610121565b6101f5600081565b60405160ff9091168152602001610121565b61021a61021536600461139b565b6108f8565b6040516101219190611591565b6101176102353660046115a4565b610b14565b600054610117565b610117610250366004611612565b610b45565b6101806102633660046115a4565b610dca565b610146610276366004611654565b6110a2565b600054811061029d5760405163bc1f089f60e01b815260040160405180910390fd5b60008082815481106102b1576102b16116a0565b60009182526020909120600690910201600581015490915060ff16156102ea5760405163d7f06c0360e01b815260040160405180910390fd5b8054604051633073df0d60e11b81523360048201526001600160a01b0391821660248201527f0000000000000000000000000000000000000000000000000000000000000000909116906360e7be1a90604401602060405180830381865afa15801561035a573d6000803e3d6000fd5b505050506040513d601f19601f8201168201806040525081019061037e91906116b6565b61039b5760405163ea8e4eb560e01b815260040160405180910390fd5b60408051602081019091526000815260028201906103b99082611777565b5060058101805460ff19166001179055805460405183916001600160a01b0316907f4d420356f0bcdde64a4a4dd5ececb57087c4119cf2d72bb1d76e329d38f3c21990600090a35050565b6000818154811061041457600080fd5b60009182526020909120600690910201805460018201546002830180546001600160a01b03938416955092909116929161044d906116ee565b80601f0160208091040260200160405190810160405280929190818152602001828054610479906116ee565b80156104c65780601f1061049b576101008083540402835291602001916104c6565b820191906000526020600020905b8154815290600101906020018083116104a957829003601f168201915b50505050600383015460048401546005909401549293909290915060ff1686565b6001600160a01b03831660009081526001602052604090208054606091829180861061055b57604080516000808252602082019092529061053e565b61052b611315565b8152602001906001900390816105235790505b5060408051600081526020810190915290945092506107b8915050565b6000610567868861184d565b9050818111156105745750805b60006105808883611860565b905060008167ffffffffffffffff81111561059d5761059d6116d8565b6040519080825280602002602001820160405280156105d657816020015b6105c3611315565b8152602001906001900390816105bb5790505b50905060008267ffffffffffffffff8111156105f4576105f46116d8565b60405190808252806020026020018201604052801561061d578160200160208202803683370190505b50905060005b838110156107ad57600087610638838e61184d565b81548110610648576106486116a0565b9060005260206000200154905060008181548110610668576106686116a0565b60009182526020918290206040805160c081018252600690930290910180546001600160a01b03908116845260018201541693830193909352600283018054929392918401916106b7906116ee565b80601f01602080910402602001604051908101604052809291908181526020018280546106e3906116ee565b80156107305780601f1061070557610100808354040283529160200191610730565b820191906000526020600020905b81548152906001019060200180831161071357829003601f168201915b5050509183525050600382015460208201526004820154604082015260059091015460ff1615156060909101528451859084908110610771576107716116a0565b60200260200101819052508083838151811061078f5761078f6116a0565b602090810291909101015250806107a581611873565b915050610623565b509096509450505050505b935093915050565b6107c8611315565b60005482106107ea5760405163bc1f089f60e01b815260040160405180910390fd5b600082815481106107fd576107fd6116a0565b60009182526020918290206040805160c081018252600690930290910180546001600160a01b039081168452600182015416938301939093526002830180549293929184019161084c906116ee565b80601f0160208091040260200160405190810160405280929190818152602001828054610878906116ee565b80156108c55780601f1061089a576101008083540402835291602001916108c5565b820191906000526020600020905b8154815290600101906020018083116108a857829003601f168201915b5050509183525050600382015460208201526004820154604082015260059091015460ff16151560609091015292915050565b600054606090801580610909575082155b1561094757604080516000808252602082019092529061093f565b61092c611315565b8152602001906001900390816109245790505b509392505050565b60008184116109565783610958565b815b905060008167ffffffffffffffff811115610975576109756116d8565b6040519080825280602002602001820160405280156109ae57816020015b61099b611315565b8152602001906001900390816109935790505b50905060005b82811015610b0b576000816109ca600187611860565b6109d49190611860565b815481106109e4576109e46116a0565b60009182526020918290206040805160c081018252600690930290910180546001600160a01b0390811684526001820154169383019390935260028301805492939291840191610a33906116ee565b80601f0160208091040260200160405190810160405280929190818152602001828054610a5f906116ee565b8015610aac5780601f10610a8157610100808354040283529160200191610aac565b820191906000526020600020905b815481529060010190602001808311610a8f57829003601f168201915b5050509183525050600382015460208201526004820154604082015260059091015460ff1615156060909101528251839083908110610aed57610aed6116a0565b60200260200101819052508080610b0390611873565b9150506109b4565b50949350505050565b60016020528160005260406000208181548110610b3057600080fd5b90600052602060002001600091509150505481565b6000818103610b67576040516385a5c61760e01b815260040160405180910390fd5b6107d0821115610b8a5760405163a743544560e01b815260040160405180910390fd5b6000610b9533611268565b60405163a787c80b60e01b81526001600160a01b0380831660048301529192507f00000000000000000000000000000000000000000000000000000000000000009091169063a787c80b90602401602060405180830381865afa158015610c00573d6000803e3d6000fd5b505050506040513d601f19601f82011682018060405250810190610c2491906116b6565b610c415760405163640f9e7160e11b815260040160405180910390fd5b60008080549050905060006040518060c00160405280846001600160a01b03168152602001336001600160a01b0316815260200187878080601f01602080910402602001604051908101604052809392919081815260200183838082843760009201829052509385525050426020808501919091526040808501849052606090940183905285546001818101885596845292819020855160069094020180546001600160a01b039485166001600160a01b0319918216178255918601519681018054979094169690911695909517909155508101519091906002820190610d289082611777565b50606082015160038201556080820151600482015560a0909101516005909101805460ff19169115159190911790556001600160a01b038216600081815260016020818152604080842080549384018155845292819020909101849055815133815242918101919091528392917f532f3ec56dad394039723a243e606926962ffe62e2d87240ed342b85384d75f1910160405180910390a39150505b92915050565b6001600160a01b038216600090815260016020526040902080546060918291801580610df4575084155b15610e47576040805160008082526020820190925290610e2a565b610e17611315565b815260200190600190039081610e0f5790505b50604080516000815260208101909152909450925061109b915050565b6000818611610e565785610e58565b815b905060008167ffffffffffffffff811115610e7557610e756116d8565b604051908082528060200260200182016040528015610eae57816020015b610e9b611315565b815260200190600190039081610e935790505b50905060008267ffffffffffffffff811115610ecc57610ecc6116d8565b604051908082528060200260200182016040528015610ef5578160200160208202803683370190505b50905060005b838110156110915760008682610f12600189611860565b610f1c9190611860565b81548110610f2c57610f2c6116a0565b9060005260206000200154905060008181548110610f4c57610f4c6116a0565b60009182526020918290206040805160c081018252600690930290910180546001600160a01b0390811684526001820154169383019390935260028301805492939291840191610f9b906116ee565b80601f0160208091040260200160405190810160405280929190818152602001828054610fc7906116ee565b80156110145780601f10610fe957610100808354040283529160200191611014565b820191906000526020600020905b815481529060010190602001808311610ff757829003601f168201915b5050509183525050600382015460208201526004820154604082015260059091015460ff1615156060909101528451859084908110611055576110556116a0565b602002602001018190525080838381518110611073576110736116a0565b6020908102919091010152508061108981611873565b915050610efb565b5090955093505050505b9250929050565b60005483106110c45760405163bc1f089f60e01b815260040160405180910390fd5b60008190036110e6576040516385a5c61760e01b815260040160405180910390fd5b6107d08111156111095760405163a743544560e01b815260040160405180910390fd5b600080848154811061111d5761111d6116a0565b60009182526020909120600690910201600581015490915060ff16156111565760405163d7f06c0360e01b815260040160405180910390fd5b8054604051633073df0d60e11b81523360048201526001600160a01b0391821660248201527f0000000000000000000000000000000000000000000000000000000000000000909116906360e7be1a90604401602060405180830381865afa1580156111c6573d6000803e3d6000fd5b505050506040513d601f19601f820116820180604052508101906111ea91906116b6565b6112075760405163ea8e4eb560e01b815260040160405180910390fd5b6002810161121683858361188c565b504260048201819055815460405191825285916001600160a01b03909116907f2e42b53d4348de92bc7cba1f7a89331249934f5e32fae2fd7086bacd2b6004149060200160405180910390a350505050565b60405163031615b560e21b81526001600160a01b03828116600483015260009182917f00000000000000000000000000000000000000000000000000000000000000001690630c5856d490602401602060405180830381865afa1580156112d3573d6000803e3d6000fd5b505050506040513d601f19601f820116820180604052508101906112f7919061194d565b90506001600160a01b0381161561130e5792915050565b5090919050565b6040518060c0016040528060006001600160a01b0316815260200160006001600160a01b031681526020016060815260200160008152602001600081526020016000151581525090565b6001600160a01b038116811461137457600080fd5b50565b60006020828403121561138957600080fd5b81356113948161135f565b9392505050565b6000602082840312156113ad57600080fd5b5035919050565b6000815180845260005b818110156113da576020818501810151868301820152016113be565b506000602082860101526020601f19601f83011685010191505092915050565b6001600160a01b0387811682528616602082015260c060408201819052600090611426908301876113b4565b6060830195909552506080810192909252151560a0909101529392505050565b60008060006060848603121561145b57600080fd5b83356114668161135f565b95602085013595506040909401359392505050565b600060018060a01b0380835116845280602084015116602085015250604082015160c060408501526114b060c08501826113b4565b9050606083015160608501526080830151608085015260a0830151151560a08501528091505092915050565b600082825180855260208086019550808260051b84010181860160005b8481101561152757601f1986840301895261151583835161147b565b988401989250908301906001016114f9565b5090979650505050505050565b60408152600061154760408301856114dc565b82810360208481019190915284518083528582019282019060005b8181101561152757845183529383019391830191600101611562565b602081526000611394602083018461147b565b60208152600061139460208301846114dc565b600080604083850312156115b757600080fd5b82356115c28161135f565b946020939093013593505050565b60008083601f8401126115e257600080fd5b50813567ffffffffffffffff8111156115fa57600080fd5b60208301915083602082850101111561109b57600080fd5b6000806020838503121561162557600080fd5b823567ffffffffffffffff81111561163c57600080fd5b611648858286016115d0565b90969095509350505050565b60008060006040848603121561166957600080fd5b83359250602084013567ffffffffffffffff81111561168757600080fd5b611693868287016115d0565b9497909650939450505050565b634e487b7160e01b600052603260045260246000fd5b6000602082840312156116c857600080fd5b8151801515811461139457600080fd5b634e487b7160e01b600052604160045260246000fd5b600181811c9082168061170257607f821691505b60208210810361172257634e487b7160e01b600052602260045260246000fd5b50919050565b601f82111561177257600081815260208120601f850160051c8101602086101561174f5750805b601f850160051c820191505b8181101561176e5782815560010161175b565b5050505b505050565b815167ffffffffffffffff811115611791576117916116d8565b6117a58161179f84546116ee565b84611728565b602080601f8311600181146117da57600084156117c25750858301515b600019600386901b1c1916600185901b17855561176e565b600085815260208120601f198616915b82811015611809578886015182559484019460019091019084016117ea565b50858210156118275787850151600019600388901b60f8161c191681555b5050505050600190811b01905550565b634e487b7160e01b600052601160045260246000fd5b80820180821115610dc457610dc4611837565b81810381811115610dc457610dc4611837565b60006001820161188557611885611837565b5060010190565b67ffffffffffffffff8311156118a4576118a46116d8565b6118b8836118b283546116ee565b83611728565b6000601f8411600181146118ec57600085156118d45750838201355b600019600387901b1c1916600186901b178355611946565b600083815260209020601f19861690835b8281101561191d57868501358255602094850194600190920191016118fd565b508682101561193a5760001960f88860031b161c19848701351681555b505060018560011b0183555b5050505050565b60006020828403121561195f57600080fd5b81516113948161135f56fea264697066735822122038fef8dbdf68d463f10323ad197314f65f61c6ba104327cc0351d450d9e5737b64736f6c63430008140033",
  "linkReferences": {},
  "deployedLinkReferences": {}
}