{
  "_format": "hh-sol-artifact-1",
  "contractName": "UserRegistry",
  "sourceName": "contracts/UserRegistry.sol",
  "abi": [
    {
      "anonymous": false,
      "inputs": [
        {
          "indexed": true,
          "internalType": "address",
          "name": "owner",
          "type": "address"
        },
        {
          "indexed": false,
          "internalType": "string",
          "name": "newBio",
          "type": "string"
        }
      ],
      "name": "BioUpdated",
      "type": "event"
    },
    {
      "anonymous": false,
      "inputs": [
        {
          "indexed": true,
          "internalType": "address",
          "name": "owner",
          "type": "address"
        },
        {
          "indexed": true,
          "internalType": "address",
          "name": "delegate",
          "type": "address"
        }
      ],
      "name": "DelegateAdded",
      "type": "event"
    },
    {
      "anonymous": false,
      "inputs": [
        {
          "indexed": true,
          "internalType": "address",
          "name": "owner",
          "type": "address"
        },
        {
          "indexed": true,
          "internalType": "address",
          "name": "delegate",
          "type": "address"
        }
      ],
      "name": "DelegateRemoved",
      "type": "event"
    },
    {
      "anonymous": false,
      "inputs": [
        {
          "indexed": true,
          "internalType": "address",
          "name": "owner",
          "type": "address"
        },
        {
          "indexed": false,
          "internalType": "string",
          "name": "newName",
          "type": "string"
        }
      ],
      "name": "DisplayNameUpdated",
      "type": "event"
    },
    {
      "anonymous": false,
      "inputs": [
        {
          "indexed": true,
          "internalType": "address",
          "name": "owner",
          "type": "address"
        },
        {
          "indexed": false,
          "internalType": "uint256",
          "name": "index",
          "type": "uint256"
        },
        {
          "indexed": false,
          "internalType": "string",
          "name": "name",
          "type": "string"
        },
        {
          "indexed": false,
          "internalType": "string",
          "name": "url",
          "type": "string"
        }
      ],
      "name": "LinkAdded",
      "type": "event"
    },
    {
      "anonymous": false,
      "inputs": [
        {
          "indexed": true,
          "internalType": "address",
          "name": "owner",
          "type": "address"
        },
        {
          "indexed": false,
          "internalType": "uint256",
          "name": "index",
          "type": "uint256"
        }
      ],
      "name": "LinkRemoved",
      "type": "event"
    },
    {
      "anonymous": false,
      "inputs": [
        {
          "indexed": true,
          "internalType": "address",
          "name": "owner",
          "type": "address"
        }
      ],
      "name": "LinksCleared",
      "type": "event"
    },
    {
      "anonymous": false,
      "inputs": [
        {
          "indexed": true,
          "internalType": "address",
          "name": "owner",
          "type": "address"
        }
      ],
      "name": "ProfileCreated",
      "type": "event"
    },
    {
      "anonymous": false,
      "inputs": [
        {
          "indexed": true,
          "internalType": "address",
          "name": "previousOwner",
          "type": "address"
        },
        {
          "indexed": true,
          "internalType": "address",
          "name": "newOwner",
          "type": "address"
        }
      ],
      "name": "ProfileOwnershipTransferred",
      "type": "event"
    },
    {
      "anonymous": false,
      "inputs": [
        {
          "indexed": true,
          "internalType": "address",
          "name": "owner",
          "type": "address"
        }
      ],
      "name": "ProfileUpdated",
      "type": "event"
    },
    {
      "anonymous": false,
      "inputs": [
        {
          "indexed": true,
          "internalType": "address",
          "name": "owner",
          "type": "address"
        }
      ],
      "name": "SessionPublicKeyCleared",
      "type": "event"
    },
    {
      "anonymous": false,
      "inputs": [
        {
          "indexed": true,
          "internalType": "address",
          "name": "owner",
          "type": "address"
        }
      ],
      "name": "SessionPublicKeyUpdated",
      "type": "event"
    },
    {
      "inputs": [
        {
          "internalType": "address",
          "name": "delegate",
          "type": "address"
        }
      ],
      "name": "addDelegate",
      "outputs": [],
      "stateMutability": "nonpayable",
      "type": "function"
    },
    {
      "inputs": [
        {
          "internalType": "string",
          "name": "name",
          "type": "string"
        },
        {
          "internalType": "string",
          "name": "url",
          "type": "string"
        }
      ],
      "name": "addLink",
      "outputs": [],
      "stateMutability": "nonpayable",
      "type": "function"
    },
    {
      "inputs": [
        {
          "internalType": "address",
          "name": "actor",
          "type": "address"
        },
        {
          "internalType": "address",
          "name": "profileOwner",
          "type": "address"
        }
      ],
      "name": "canActAs",
      "outputs": [
        {
          "internalType": "bool",
          "name": "",
          "type": "bool"
        }
      ],
      "stateMutability": "view",
      "type": "function"
    },
    {
      "inputs": [],
      "name": "clearLinks",
      "outputs": [],
      "stateMutability": "nonpayable",
      "type": "function"
    },
    {
      "inputs": [],
      "name": "clearSessionPublicKey",
      "outputs": [],
      "stateMutability": "nonpayable",
      "type": "function"
    },
    {
      "inputs": [],
      "name": "createDefaultProfile",
      "outputs": [],
      "stateMutability": "nonpayable",
      "type": "function"
    },
    {
      "inputs": [
        {
          "internalType": "string",
          "name": "displayName",
          "type": "string"
        },
        {
          "internalType": "string",
          "name": "bio",
          "type": "string"
        }
      ],
      "name": "createProfile",
      "outputs": [],
      "stateMutability": "nonpayable",
      "type": "function"
    },
    {
      "inputs": [
        {
          "internalType": "address",
          "name": "",
          "type": "address"
        }
      ],
      "name": "delegateToOwner",
      "outputs": [
        {
          "internalType": "address",
          "name": "",
          "type": "address"
        }
      ],
      "stateMutability": "view",
      "type": "function"
    },
    {
      "inputs": [
        {
          "internalType": "address",
          "name": "owner",
          "type": "address"
        }
      ],
      "name": "getLinkCount",
      "outputs": [
        {
          "internalType": "uint256",
          "name": "",
          "type": "uint256"
        }
      ],
      "stateMutability": "view",
      "type": "function"
    },
    {
      "inputs": [
        {
          "internalType": "address",
          "name": "owner",
          "type": "address"
        }
      ],
      "name": "getLinks",
      "outputs": [
        {
          "components": [
            {
              "internalType": "string",
              "name": "name",
              "type": "string"
            },
            {
              "internalType": "string",
              "name": "url",
              "type": "string"
            }
          ],
          "internalType": "struct UserRegistry.Link[]",
          "name": "",
          "type": "tuple[]"
        }
      ],
      "stateMutability": "view",
      "type": "function"
    },
    {
      "inputs": [
        {
          "internalType": "address",
          "name": "owner",
          "type": "address"
        }
      ],
      "name": "getProfile",
      "outputs": [
        {
          "components": [
            {
              "internalType": "address",
              "name": "owner",
              "type": "address"
            },
            {
              "internalType": "string",
              "name": "displayName",
              "type": "string"
            },
            {
              "internalType": "string",
              "name": "bio",
              "type": "string"
            },
            {
              "internalType": "bool",
              "name": "exists",
              "type": "bool"
            }
          ],
          "internalType": "struct UserRegistry.Profile",
          "name": "",
          "type": "tuple"
        }
      ],
      "stateMutability": "view",
      "type": "function"
    },
    {
      "inputs": [
        {
          "internalType": "address",
          "name": "owner",
          "type": "address"
        }
      ],
      "name": "getSessionPublicKey",
      "outputs": [
        {
          "internalType": "bytes",
          "name": "",
          "type": "bytes"
        }
      ],
      "stateMutability": "view",
      "type": "function"
    },
    {
      "inputs": [
        {
          "internalType": "address",
          "name": "addr",
          "type": "address"
        }
      ],
      "name": "hasProfile",
      "outputs": [
        {
          "internalType": "bool",
          "name": "",
          "type": "bool"
        }
      ],
      "stateMutability": "view",
      "type": "function"
    },
    {
      "inputs": [
        {
          "internalType": "address",
          "name": "owner",
          "type": "address"
        }
      ],
      "name": "hasSessionPublicKey",
      "outputs": [
        {
          "internalType": "bool",
          "name": "",
          "type": "bool"
        }
      ],
      "stateMutability": "view",
      "type": "function"
    },
    {
      "inputs": [
        {
          "internalType": "address",
          "name": "",
          "type": "address"
        },
        {
          "internalType": "address",
          "name": "",
          "type": "address"
        }
      ],
      "name": "isDelegate",
      "outputs": [
        {
          "internalType": "bool",
          "name": "",
          "type": "bool"
        }
      ],
      "stateMutability": "view",
      "type": "function"
    },
    {
      "inputs": [
        {
          "internalType": "address",
          "name": "",
          "type": "address"
        }
      ],
      "name": "profiles",
      "outputs": [
        {
          "internalType": "address",
          "name": "owner",
          "type": "address"
        },
        {
          "internalType": "string",
          "name": "displayName",
          "type": "string"
        },
        {
          "internalType": "string",
          "name": "bio",
          "type": "string"
        },
        {
          "internalType": "bool",
          "name": "exists",
          "type": "bool"
        }
      ],
      "stateMutability": "view",
      "type": "function"
    },
    {
      "inputs": [
        {
          "internalType": "address",
          "name": "delegate",
          "type": "address"
        }
      ],
      "name": "removeDelegate",
      "outputs": [],
      "stateMutability": "nonpayable",
      "type": "function"
    },
    {
      "inputs": [
        {
          "internalType": "uint256",
          "name": "index",
          "type": "uint256"
        }
      ],
      "name": "removeLink",
      "outputs": [],
      "stateMutability": "nonpayable",
      "type": "function"
    },
    {
      "inputs": [
        {
          "internalType": "address",
          "name": "addr",
          "type": "address"
        }
      ],
      "name": "resolveToOwner",
      "outputs": [
        {
          "internalType": "address",
          "name": "",
          "type": "address"
        }
      ],
      "stateMutability": "view",
      "type": "function"
    },
    {
      "inputs": [
        {
          "internalType": "address",
          "name": "",
          "type": "address"
        }
      ],
      "name": "sessionPublicKeys",
      "outputs": [
        {
          "internalType": "bytes",
          "name": "",
          "type": "bytes"
        }
      ],
      "stateMutability": "view",
      "type": "function"
    },
    {
      "inputs": [
        {
          "internalType": "string",
          "name": "bio",
          "type": "string"
        }
      ],
      "name": "setBio",
      "outputs": [],
      "stateMutability": "nonpayable",
      "type": "function"
    },
    {
      "inputs": [
        {
          "internalType": "string",
          "name": "displayName",
          "type": "string"
        }
      ],
      "name": "setDisplayName",
      "outputs": [],
      "stateMutability": "nonpayable",
      "type": "function"
    },
    {
      "inputs": [
        {
          "internalType": "bytes",
          "name": "sessionPubKey",
          "type": "bytes"
        }
      ],
      "name": "setSessionPublicKey",
      "outputs": [],
      "stateMutability": "nonpayable",
      "type": "function"
    },
    {
      "inputs": [
        {
          "internalType": "address",
          "name": "newOwner",
          "type": "address"
        }
      ],
      "name": "transferProfileOwnership",
      "outputs": [],
      "stateMutability": "nonpayable",
      "type": "function"
    }
  ],
  "bytecode": "0x608060405234801561001057600080fd5b50612905806100206000396000f3fe608060405234801561001057600080fd5b50600436106101585760003560e01c806391e33085116100c3578063b744177f1161007c578063b744177f1461036f578063ba1feb8a14610377578063bbe156271461038a578063bddd12b4146103ad578063e71bdf41146103b5578063fb7e06d8146103c857600080fd5b806391e33085146102bd57806398be0dd4146102d05780639b25b232146102e35780639c4882b31461031a578063a787c80b1461032d578063b080ae4f1461035c57600080fd5b8063603f7b5911610115578063603f7b591461025657806360e7be1a1461026957806367e7646f1461027c57806375ca64fe1461028f578063781debd0146102975780637de918ef146102aa57600080fd5b80630c5856d41461015d5780630f53a470146101a35780630fec9efa146101c35780634b9d8624146101d857806355a5cd9f146101f85780635fec5d0b14610218575b600080fd5b61018661016b366004612183565b6002602052600090815260409020546001600160a01b031681565b6040516001600160a01b0390911681526020015b60405180910390f35b6101b66101b1366004612183565b6103db565b60405161019a91906121eb565b6101d66101d1366004612298565b61057d565b005b6101eb6101e6366004612183565b610817565b60405161019a9190612304565b61020b610206366004612183565b6109b0565b60405161019a9190612389565b61024661022636600461239c565b600360209081526000928352604080842090915290825290205460ff1681565b604051901515815260200161019a565b6101d6610264366004612183565b610a4a565b61024661027736600461239c565b610f40565b6101d661028a366004612183565b610f94565b6101d66110cd565b61020b6102a5366004612183565b611133565b6101d66102b83660046123cf565b6111df565b6101d66102cb3660046123cf565b6112e1565b6101866102de366004612183565b61143c565b61030c6102f1366004612183565b6001600160a01b031660009081526001602052604090205490565b60405190815260200161019a565b610246610328366004612183565b611499565b61024661033b366004612183565b6001600160a01b031660009081526020819052604090206003015460ff1690565b6101d661036a366004612411565b6114c9565b6101d6611631565b6101d6610385366004612298565b6116de565b61039d610398366004612183565b61193b565b60405161019a949392919061242a565b6101d6611a81565b6101d66103c3366004612183565b611bb4565b6101d66103d63660046123cf565b611e1d565b610411604051806080016040528060006001600160a01b0316815260200160608152602001606081526020016000151581525090565b6001600160a01b0380831660009081526020818152604091829020825160808101909352805490931682526001830180549293929184019161045290612474565b80601f016020809104026020016040519081016040528092919081815260200182805461047e90612474565b80156104cb5780601f106104a0576101008083540402835291602001916104cb565b820191906000526020600020905b8154815290600101906020018083116104ae57829003601f168201915b505050505081526020016002820180546104e490612474565b80601f016020809104026020016040519081016040528092919081815260200182805461051090612474565b801561055d5780601f106105325761010080835404028352916020019161055d565b820191906000526020600020905b81548152906001019060200180831161054057829003601f168201915b50505091835250506003919091015460ff16151560209091015292915050565b6000610587611f1f565b9050836105d05760405162461bcd60e51b8152602060048201526012602482015271131a5b9ac81b985b59481c995c5d5a5c995960721b60448201526064015b60405180910390fd5b60328411156106165760405162461bcd60e51b81526020600482015260126024820152714c696e6b206e616d6520746f6f206c6f6e6760701b60448201526064016105c7565b816106575760405162461bcd60e51b8152602060048201526011602482015270131a5b9ac8155493081c995c5d5a5c9959607a1b60448201526064016105c7565b60c882111561069c5760405162461bcd60e51b81526020600482015260116024820152704c696e6b2055524c20746f6f206c6f6e6760781b60448201526064016105c7565b6001600160a01b038116600090815260016020526040902054600a116106f35760405162461bcd60e51b815260206004820152600c60248201526b4d6178203130206c696e6b7360a01b60448201526064016105c7565b6001600160a01b038116600090815260016020908152604091829020805483516060601f8a01859004909402810184018552938401888152909391928291908a908a9081908501838280828437600092019190915250505090825250604080516020601f89018190048102820181019092528781529181019190889088908190840183828082843760009201829052509390945250508354600181018555938152602090208251929360020201918291506107ae9082612528565b50602082015160018201906107c39082612528565b505050816001600160a01b03167fca6ab2d9b68c3ecb4269af6f144b31f2ffe6e2dedd099f53333e4c457986a250828888888860405161080795949392919061260b565b60405180910390a2505050505050565b6001600160a01b0381166000908152600160209081526040808320805482518185028101850190935280835260609492939192909184015b828210156109a5578382906000526020600020906002020160405180604001604052908160008201805461088290612474565b80601f01602080910402602001604051908101604052809291908181526020018280546108ae90612474565b80156108fb5780601f106108d0576101008083540402835291602001916108fb565b820191906000526020600020905b8154815290600101906020018083116108de57829003601f168201915b5050505050815260200160018201805461091490612474565b80601f016020809104026020016040519081016040528092919081815260200182805461094090612474565b801561098d5780601f106109625761010080835404028352916020019161098d565b820191906000526020600020905b81548152906001019060200180831161097057829003601f168201915b5050505050815250508152602001906001019061084f565b505050509050919050565b600460205260009081526040902080546109c990612474565b80601f01602080910402602001604051908101604052809291908181526020018280546109f590612474565b8015610a425780601f10610a1757610100808354040283529160200191610a42565b820191906000526020600020905b815481529060010190602001808311610a2557829003601f168201915b505050505081565b3360009081526020819052604090206003015460ff16610a7c5760405162461bcd60e51b81526004016105c790612644565b336000818152602081905260409020546001600160a01b031614610ab25760405162461bcd60e51b81526004016105c790612674565b6001600160a01b038116610afc5760405162461bcd60e51b815260206004820152601160248201527024b73b30b634b2103732bb9037bbb732b960791b60448201526064016105c7565b6001600160a01b03811660009081526020819052604090206003015460ff1615610b605760405162461bcd60e51b81526020600482015260156024820152744e6577206f776e6572206861732070726f66696c6560581b60448201526064016105c7565b6001600160a01b038181166000908152600260205260409020541615610bc05760405162461bcd60e51b81526020600482015260156024820152744e6577206f776e65722069732064656c656761746560581b60448201526064016105c7565b604080516080810182526001600160a01b0383168152336000908152602081815292902060010180549192830191610bf790612474565b80601f0160208091040260200160405190810160405280929190818152602001828054610c2390612474565b8015610c705780601f10610c4557610100808354040283529160200191610c70565b820191906000526020600020905b815481529060010190602001808311610c5357829003601f168201915b50505050508152602001600080336001600160a01b03166001600160a01b031681526020019081526020016000206002018054610cac90612474565b80601f0160208091040260200160405190810160405280929190818152602001828054610cd890612474565b8015610d255780601f10610cfa57610100808354040283529160200191610d25565b820191906000526020600020905b815481529060010190602001808311610d0857829003601f168201915b5050509183525050600160209182018190526001600160a01b03848116600090815280845260409020845181546001600160a01b03191692169190911781559183015190820190610d769082612528565b5060408201516002820190610d8b9082612528565b50606091909101516003909101805460ff1916911515919091179055336000908152600160205260408120905b8154811015610e43576001600160a01b03831660009081526001602052604090208254839083908110610ded57610ded61269f565b6000918252602080832084546001810186559484529220600291820290920192020180610e1a83826126b5565b50600181810190610e2d908401826126b5565b5050508080610e3b906127a0565b915050610db8565b503360009081526004602052604081208054610e5e90612474565b90501115610e9157336000908152600460205260408082206001600160a01b0385168352912090610e8f90826126b5565b505b33600090815260208190526040812080546001600160a01b031916815590610ebc60018301826120ca565b610eca6002830160006120ca565b50600301805460ff19169055336000908152600160205260408120610eee91612107565b336000908152600460205260408120610f06916120ca565b6040516001600160a01b0383169033907f0ccb252632c8127b8affc3a2f8d4e4944d12b250cb0824306d6aedb97eb6081e90600090a35050565b6000816001600160a01b0316836001600160a01b031603610f6357506001610f8e565b506001600160a01b0380821660009081526003602090815260408083209386168352929052205460ff165b92915050565b3360009081526020819052604090206003015460ff16610fc65760405162461bcd60e51b81526004016105c790612644565b336000818152602081905260409020546001600160a01b031614610ffc5760405162461bcd60e51b81526004016105c790612674565b3360009081526003602090815260408083206001600160a01b038516845290915290205460ff166110605760405162461bcd60e51b815260206004820152600e60248201526d4e6f7420612064656c656761746560901b60448201526064016105c7565b3360008181526003602090815260408083206001600160a01b038616808552908352818420805460ff19169055600290925280832080546001600160a01b0319169055519092917fe8514dd4be968431135580c26314ec35afafc8178268603f99625584960d9c1691a350565b60006110d7611f1f565b6001600160a01b03811660009081526001602052604081209192506110fc9190612107565b6040516001600160a01b038216907f4ebd2ae967d6ecec2b1279d60129082874a637b7e0ef3331d5e51c65df36172c90600090a250565b6001600160a01b038116600090815260046020526040902080546060919061115a90612474565b80601f016020809104026020016040519081016040528092919081815260200182805461118690612474565b80156111d35780601f106111a8576101008083540402835291602001916111d3565b820191906000526020600020905b8154815290600101906020018083116111b657829003601f168201915b50505050509050919050565b3360009081526020819052604090206003015460ff166112115760405162461bcd60e51b81526004016105c790612644565b336000818152602081905260409020546001600160a01b0316146112475760405162461bcd60e51b81526004016105c790612674565b604081146112975760405162461bcd60e51b815260206004820152601960248201527f496e76616c6964207075626c6963206b6579206c656e6774680000000000000060448201526064016105c7565b3360009081526004602052604090206112b18284836127b9565b5060405133907f5ff7c0bad00be12d55cdccd56110e5cc3274c51f092fb3926fd621d2209a615890600090a25050565b3360009081526020819052604090206003015460ff166113135760405162461bcd60e51b81526004016105c790612644565b336000818152602081905260409020546001600160a01b0316146113495760405162461bcd60e51b81526004016105c790612674565b8061138e5760405162461bcd60e51b8152602060048201526015602482015274111a5cdc1b185e481b985b59481c995c5d5a5c9959605a1b60448201526064016105c7565b60328111156113d75760405162461bcd60e51b8152602060048201526015602482015274446973706c6179206e616d6520746f6f206c6f6e6760581b60448201526064016105c7565b3360009081526020819052604090206001016113f48284836127b9565b50336001600160a01b03167f1e9bee8140e85de651adf10e9e40c4a2b2b5c1004c1c855aa7f29391a899c5a68383604051611430929190612873565b60405180910390a25050565b6001600160a01b0380821660009081526002602052604081205490911680156114655792915050565b6001600160a01b03831660009081526020819052604090206003015460ff1615611490575090919050565b50600092915050565b6001600160a01b038116600090815260046020526040812080548291906114bf90612474565b9050119050919050565b60006114d3611f1f565b6001600160a01b038116600090815260016020526040902080549192509083106115355760405162461bcd60e51b8152602060048201526013602482015272496e646578206f7574206f6620626f756e647360681b60448201526064016105c7565b805481906115459060019061288f565b815481106115555761155561269f565b90600052602060002090600202018184815481106115755761157561269f565b600091825260209091206002909102018061159083826126b5565b506001818101906115a3908401826126b5565b50905050808054806115b7576115b76128a2565b600082815260208120600019909201916002830201906115d782826120ca565b6115e56001830160006120ca565b50509055816001600160a01b03167f7797729365faace2de241145f732a8f81af7571d5a3c7deac73664d67478447f8460405161162491815260200190565b60405180910390a2505050565b3360009081526020819052604090206003015460ff166116635760405162461bcd60e51b81526004016105c790612644565b336000818152602081905260409020546001600160a01b0316146116995760405162461bcd60e51b81526004016105c790612674565b3360009081526004602052604081206116b1916120ca565b60405133907fa14514763a5ad5dc633ae300a26a8e103e086922a337846df3756270a360257990600090a2565b3360009081526020819052604090206003015460ff161561173a5760405162461bcd60e51b815260206004820152601660248201527550726f66696c6520616c72656164792065786973747360501b60448201526064016105c7565b8261177f5760405162461bcd60e51b8152602060048201526015602482015274111a5cdc1b185e481b985b59481c995c5d5a5c9959605a1b60448201526064016105c7565b60328311156117c85760405162461bcd60e51b8152602060048201526015602482015274446973706c6179206e616d6520746f6f206c6f6e6760581b60448201526064016105c7565b6101f48111156118095760405162461bcd60e51b815260206004820152600c60248201526b42696f20746f6f206c6f6e6760a01b60448201526064016105c7565b6040518060800160405280336001600160a01b0316815260200185858080601f016020809104026020016040519081016040528093929190818152602001838380828437600092019190915250505090825250604080516020601f86018190048102820181019092528481529181019190859085908190840183828082843760009201829052509385525050600160209384018190523383528284526040909220845181546001600160a01b0319166001600160a01b0390911617815592840151918301916118d9915082612528565b50604082015160028201906118ee9082612528565b50606091909101516003909101805460ff191691151591909117905560405133907ff10ec97e920cde75887622583772c637595a40b1f7777c18e51ea36cd127475c90600090a250505050565b600060208190529081526040902080546001820180546001600160a01b03909216929161196790612474565b80601f016020809104026020016040519081016040528092919081815260200182805461199390612474565b80156119e05780601f106119b5576101008083540402835291602001916119e0565b820191906000526020600020905b8154815290600101906020018083116119c357829003601f168201915b5050505050908060020180546119f590612474565b80601f0160208091040260200160405190810160405280929190818152602001828054611a2190612474565b8015611a6e5780601f10611a4357610100808354040283529160200191611a6e565b820191906000526020600020905b815481529060010190602001808311611a5157829003601f168201915b5050506003909301549192505060ff1684565b3360009081526020819052604090206003015460ff1615611add5760405162461bcd60e51b815260206004820152601660248201527550726f66696c6520616c72656164792065786973747360501b60448201526064016105c7565b6000611ae833611f6d565b604080516080810182523380825260208083018581528451808301865260008082528587019190915260016060860181905293815291829052939020825181546001600160a01b0319166001600160a01b039091161781559251939450909290820190611b559082612528565b5060408201516002820190611b6a9082612528565b50606091909101516003909101805460ff191691151591909117905560405133907ff10ec97e920cde75887622583772c637595a40b1f7777c18e51ea36cd127475c90600090a250565b3360009081526020819052604090206003015460ff16611be65760405162461bcd60e51b81526004016105c790612644565b336000818152602081905260409020546001600160a01b031614611c1c5760405162461bcd60e51b81526004016105c790612674565b6001600160a01b038116611c725760405162461bcd60e51b815260206004820152601860248201527f496e76616c69642064656c65676174652061646472657373000000000000000060448201526064016105c7565b336001600160a01b03821603611cca5760405162461bcd60e51b815260206004820152601760248201527f43616e6e6f742064656c656761746520746f2073656c6600000000000000000060448201526064016105c7565b3360009081526003602090815260408083206001600160a01b038516845290915290205460ff1615611d335760405162461bcd60e51b8152602060048201526012602482015271416c726561647920612064656c656761746560701b60448201526064016105c7565b6001600160a01b038181166000908152600260205260409020541615611dab5760405162461bcd60e51b815260206004820152602760248201527f416464726573732069732064656c656761746520666f7220616e6f746865722060448201526670726f66696c6560c81b60648201526084016105c7565b3360008181526003602090815260408083206001600160a01b038616808552908352818420805460ff19166001179055600290925280832080546001600160a01b03191685179055519092917f12dade473695d73bd34e031c850d5e815fa17a42b1b5ba13ff72de2497c5e30991a350565b3360009081526020819052604090206003015460ff16611e4f5760405162461bcd60e51b81526004016105c790612644565b336000818152602081905260409020546001600160a01b031614611e855760405162461bcd60e51b81526004016105c790612674565b6101f4811115611ec65760405162461bcd60e51b815260206004820152600c60248201526b42696f20746f6f206c6f6e6760a01b60448201526064016105c7565b336000908152602081905260409020600201611ee38284836127b9565b50336001600160a01b03167f3f838a7d0889a59b2445af5389196b3948170278848eb90d8d256ab14aaf4cf08383604051611430929190612873565b600080611f2a61209f565b6001600160a01b03811660009081526020819052604090206003015490915060ff16611f685760405162461bcd60e51b81526004016105c790612644565b919050565b604080518082018252601081526f181899199a1a9b1b9c1cb0b131b232b360811b60208201528151600a80825281840190935260609260009190602082018180368337019050509050600360fc1b81600081518110611fce57611fce61269f565b60200101906001600160f81b031916908160001a905350600f60fb1b81600181518110611ffd57611ffd61269f565b60200101906001600160f81b031916908160001a9053508360095b60028110612095578382600f166001600160a01b03168151811061203e5761203e61269f565b602001015160f81c60f81b83828151811061205b5761205b61269f565b60200101906001600160f81b031916908160001a9053506004826001600160a01b0316901c9150808061208d906128b8565b915050612018565b5090949350505050565b336000908152600260205260408120546001600160a01b031680156120c357919050565b3391505090565b5080546120d690612474565b6000825580601f106120e6575050565b601f0160209004906000526020600020908101906121049190612128565b50565b50805460008255600202906000526020600020908101906121049190612141565b5b8082111561213d5760008155600101612129565b5090565b8082111561213d57600061215582826120ca565b6121636001830160006120ca565b50600201612141565b80356001600160a01b0381168114611f6857600080fd5b60006020828403121561219557600080fd5b61219e8261216c565b9392505050565b6000815180845260005b818110156121cb576020818501810151868301820152016121af565b506000602082860101526020601f19601f83011685010191505092915050565b602080825282516001600160a01b0316828201528201516080604083015260009061221960a08401826121a5565b90506040840151601f1984830301606085015261223682826121a5565b9150506060840151151560808401528091505092915050565b60008083601f84011261226157600080fd5b50813567ffffffffffffffff81111561227957600080fd5b60208301915083602082850101111561229157600080fd5b9250929050565b600080600080604085870312156122ae57600080fd5b843567ffffffffffffffff808211156122c657600080fd5b6122d28883890161224f565b909650945060208701359150808211156122eb57600080fd5b506122f88782880161224f565b95989497509550505050565b60006020808301818452808551808352604092508286019150828160051b87010184880160005b8381101561237b57888303603f190185528151805187855261234f888601826121a5565b91890151858303868b015291905061236781836121a5565b96890196945050509086019060010161232b565b509098975050505050505050565b60208152600061219e60208301846121a5565b600080604083850312156123af57600080fd5b6123b88361216c565b91506123c66020840161216c565b90509250929050565b600080602083850312156123e257600080fd5b823567ffffffffffffffff8111156123f957600080fd5b6124058582860161224f565b90969095509350505050565b60006020828403121561242357600080fd5b5035919050565b6001600160a01b038516815260806020820181905260009061244e908301866121a5565b828103604084015261246081866121a5565b915050821515606083015295945050505050565b600181811c9082168061248857607f821691505b6020821081036124a857634e487b7160e01b600052602260045260246000fd5b50919050565b634e487b7160e01b600052604160045260246000fd5b601f82111561250e57600081815260208120601f850160051c810160208610156124eb5750805b601f850160051c820191505b8181101561250a578281556001016124f7565b5050505b505050565b600019600383901b1c191660019190911b1790565b815167ffffffffffffffff811115612542576125426124ae565b612556816125508454612474565b846124c4565b602080601f83116001811461258557600084156125735750858301515b61257d8582612513565b86555061250a565b600085815260208120601f198616915b828110156125b457888601518255948401946001909101908401612595565b50858210156125d25787850151600019600388901b60f8161c191681555b5050505050600190811b01905550565b81835281816020850137506000828201602090810191909152601f909101601f19169091010190565b8581526060602082015260006126256060830186886125e2565b82810360408401526126388185876125e2565b98975050505050505050565b602080825260169082015275141c9bd99a5b1948191bd95cc81b9bdd08195e1a5cdd60521b604082015260600190565b6020808252601190820152702737ba10383937b334b6329037bbb732b960791b604082015260600190565b634e487b7160e01b600052603260045260246000fd5b8181036126c0575050565b6126ca8254612474565b67ffffffffffffffff8111156126e2576126e26124ae565b6126f0816125508454612474565b6000601f82116001811461271e576000831561270c5750848201545b6127168482612513565b855550612783565b600085815260209020601f19841690600086815260209020845b838110156127585782860154825560019586019590910190602001612738565b50858310156127765781850154600019600388901b60f8161c191681555b50505060018360011b0184555b5050505050565b634e487b7160e01b600052601160045260246000fd5b6000600182016127b2576127b261278a565b5060010190565b67ffffffffffffffff8311156127d1576127d16124ae565b6127e5836127df8354612474565b836124c4565b6000601f84116001811461281357600085156128015750838201355b61280b8682612513565b845550612783565b600083815260209020601f19861690835b828110156128445786850135825560209485019460019092019101612824565b50868210156128615760001960f88860031b161c19848701351681555b505060018560011b0183555050505050565b6020815260006128876020830184866125e2565b949350505050565b81810381811115610f8e57610f8e61278a565b634e487b7160e01b600052603160045260246000fd5b6000816128c7576128c761278a565b50600019019056fea2646970667358221220de9f24ce74e4fcc9e2c7d4d63a255cac0b98533ce0525c9af11fe309ae64c13d64736f6c63430008140033",
  "linkReferences": {},
  "deployedLinkReferences": {}
}